{
  "contractName": "CrowdFund",
  "abi": [
    {
      "inputs": [],
      "name": "balance",
      "outputs": [
        {
          "internalType": "uint256",
          "name": "",
          "type": "uint256"
        }
      ],
      "stateMutability": "view",
      "type": "function",
      "constant": true
    },
    {
      "inputs": [
        {
          "internalType": "address",
          "name": "",
          "type": "address"
        }
      ],
      "name": "candidates",
      "outputs": [
        {
          "internalType": "uint256",
          "name": "",
          "type": "uint256"
        }
      ],
      "stateMutability": "view",
      "type": "function",
      "constant": true
    },
    {
      "inputs": [
        {
          "internalType": "address",
          "name": "",
          "type": "address"
        }
      ],
      "name": "data",
      "outputs": [
        {
          "internalType": "uint256",
          "name": "",
          "type": "uint256"
        }
      ],
      "stateMutability": "view",
      "type": "function",
      "constant": true
    },
    {
      "inputs": [],
      "name": "manager",
      "outputs": [
        {
          "internalType": "address",
          "name": "",
          "type": "address"
        }
      ],
      "stateMutability": "view",
      "type": "function",
      "constant": true
    },
    {
      "inputs": [
        {
          "internalType": "address",
          "name": "",
          "type": "address"
        }
      ],
      "name": "passcode",
      "outputs": [
        {
          "internalType": "uint256",
          "name": "",
          "type": "uint256"
        }
      ],
      "stateMutability": "view",
      "type": "function",
      "constant": true
    },
    {
      "inputs": [
        {
          "internalType": "address",
          "name": "",
          "type": "address"
        }
      ],
      "name": "records",
      "outputs": [
        {
          "internalType": "string",
          "name": "name",
          "type": "string"
        },
        {
          "internalType": "uint256",
          "name": "points",
          "type": "uint256"
        },
        {
          "internalType": "uint256",
          "name": "passcode",
          "type": "uint256"
        },
        {
          "internalType": "uint256",
          "name": "paid",
          "type": "uint256"
        }
      ],
      "stateMutability": "view",
      "type": "function",
      "constant": true
    },
    {
      "inputs": [
        {
          "internalType": "uint256",
          "name": "",
          "type": "uint256"
        }
      ],
      "name": "records1",
      "outputs": [
        {
          "internalType": "string",
          "name": "des",
          "type": "string"
        },
        {
          "internalType": "uint256",
          "name": "total",
          "type": "uint256"
        },
        {
          "internalType": "uint256",
          "name": "person",
          "type": "uint256"
        },
        {
          "internalType": "uint256",
          "name": "collected",
          "type": "uint256"
        },
        {
          "internalType": "uint256",
          "name": "client",
          "type": "uint256"
        },
        {
          "internalType": "string",
          "name": "status",
          "type": "string"
        }
      ],
      "stateMutability": "view",
      "type": "function",
      "constant": true
    },
    {
      "inputs": [
        {
          "internalType": "uint256",
          "name": "",
          "type": "uint256"
        }
      ],
      "name": "records2",
      "outputs": [
        {
          "internalType": "uint256",
          "name": "totall",
          "type": "uint256"
        }
      ],
      "stateMutability": "view",
      "type": "function",
      "constant": true
    },
    {
      "inputs": [
        {
          "internalType": "address",
          "name": "",
          "type": "address"
        }
      ],
      "name": "records3",
      "outputs": [
        {
          "internalType": "uint256",
          "name": "",
          "type": "uint256"
        }
      ],
      "stateMutability": "view",
      "type": "function",
      "constant": true
    },
    {
      "inputs": [
        {
          "internalType": "uint256",
          "name": "",
          "type": "uint256"
        }
      ],
      "name": "requests",
      "outputs": [
        {
          "internalType": "string",
          "name": "description",
          "type": "string"
        },
        {
          "internalType": "uint256",
          "name": "num",
          "type": "uint256"
        },
        {
          "internalType": "string",
          "name": "status",
          "type": "string"
        },
        {
          "internalType": "bool",
          "name": "completed",
          "type": "bool"
        },
        {
          "internalType": "uint256",
          "name": "votes",
          "type": "uint256"
        }
      ],
      "stateMutability": "view",
      "type": "function",
      "constant": true
    },
    {
      "inputs": [
        {
          "internalType": "string",
          "name": "d",
          "type": "string"
        },
        {
          "internalType": "uint256",
          "name": "x",
          "type": "uint256"
        },
        {
          "internalType": "uint256",
          "name": "p",
          "type": "uint256"
        }
      ],
      "name": "createRequest",
      "outputs": [],
      "stateMutability": "nonpayable",
      "type": "function"
    },
    {
      "inputs": [
        {
          "internalType": "uint256",
          "name": "id",
          "type": "uint256"
        }
      ],
      "name": "viewD",
      "outputs": [
        {
          "internalType": "string",
          "name": "",
          "type": "string"
        }
      ],
      "stateMutability": "view",
      "type": "function",
      "constant": true
    },
    {
      "inputs": [
        {
          "internalType": "uint256",
          "name": "id",
          "type": "uint256"
        }
      ],
      "name": "viewM",
      "outputs": [
        {
          "internalType": "uint256",
          "name": "",
          "type": "uint256"
        }
      ],
      "stateMutability": "view",
      "type": "function",
      "constant": true
    },
    {
      "inputs": [
        {
          "internalType": "uint256",
          "name": "id",
          "type": "uint256"
        }
      ],
      "name": "viewS",
      "outputs": [
        {
          "internalType": "string",
          "name": "",
          "type": "string"
        }
      ],
      "stateMutability": "view",
      "type": "function",
      "constant": true
    },
    {
      "inputs": [
        {
          "internalType": "uint256",
          "name": "no",
          "type": "uint256"
        },
        {
          "internalType": "address",
          "name": "a",
          "type": "address"
        },
        {
          "internalType": "uint256",
          "name": "p",
          "type": "uint256"
        }
      ],
      "name": "voting",
      "outputs": [],
      "stateMutability": "nonpayable",
      "type": "function"
    },
    {
      "inputs": [
        {
          "internalType": "address",
          "name": "a",
          "type": "address"
        },
        {
          "internalType": "uint256",
          "name": "b",
          "type": "uint256"
        }
      ],
      "name": "register",
      "outputs": [],
      "stateMutability": "nonpayable",
      "type": "function"
    },
    {
      "inputs": [
        {
          "internalType": "address payable",
          "name": "x",
          "type": "address"
        }
      ],
      "name": "SendEth",
      "outputs": [],
      "stateMutability": "payable",
      "type": "function",
      "payable": true
    },
    {
      "inputs": [
        {
          "internalType": "uint256",
          "name": "id",
          "type": "uint256"
        },
        {
          "internalType": "address payable",
          "name": "x",
          "type": "address"
        },
        {
          "internalType": "uint256",
          "name": "password",
          "type": "uint256"
        }
      ],
      "name": "Withdraw",
      "outputs": [],
      "stateMutability": "payable",
      "type": "function",
      "payable": true
    },
    {
      "inputs": [],
      "name": "ManagerAddress",
      "outputs": [
        {
          "internalType": "address",
          "name": "",
          "type": "address"
        }
      ],
      "stateMutability": "view",
      "type": "function",
      "constant": true
    },
    {
      "inputs": [],
      "name": "getBalance",
      "outputs": [
        {
          "internalType": "uint256",
          "name": "",
          "type": "uint256"
        }
      ],
      "stateMutability": "view",
      "type": "function",
      "constant": true
    },
    {
      "inputs": [
        {
          "internalType": "address",
          "name": "r",
          "type": "address"
        },
        {
          "internalType": "uint256",
          "name": "p",
          "type": "uint256"
        }
      ],
      "name": "Find",
      "outputs": [
        {
          "internalType": "uint256",
          "name": "",
          "type": "uint256"
        }
      ],
      "stateMutability": "view",
      "type": "function",
      "constant": true
    },
    {
      "inputs": [
        {
          "internalType": "string",
          "name": "_name",
          "type": "string"
        },
        {
          "internalType": "address",
          "name": "ad",
          "type": "address"
        },
        {
          "internalType": "uint256",
          "name": "_p",
          "type": "uint256"
        }
      ],
      "name": "Signup",
      "outputs": [],
      "stateMutability": "nonpayable",
      "type": "function"
    },
    {
      "inputs": [
        {
          "internalType": "address",
          "name": "ad",
          "type": "address"
        },
        {
          "internalType": "uint256",
          "name": "passs",
          "type": "uint256"
        }
      ],
      "name": "Profile_name",
      "outputs": [
        {
          "internalType": "string",
          "name": "",
          "type": "string"
        }
      ],
      "stateMutability": "view",
      "type": "function",
      "constant": true
    },
    {
      "inputs": [
        {
          "internalType": "address",
          "name": "ad",
          "type": "address"
        },
        {
          "internalType": "uint256",
          "name": "passs",
          "type": "uint256"
        }
      ],
      "name": "Profile_points",
      "outputs": [
        {
          "internalType": "uint256",
          "name": "",
          "type": "uint256"
        }
      ],
      "stateMutability": "view",
      "type": "function",
      "constant": true
    },
    {
      "inputs": [
        {
          "internalType": "uint256",
          "name": "x",
          "type": "uint256"
        },
        {
          "internalType": "address",
          "name": "ad",
          "type": "address"
        },
        {
          "internalType": "uint256",
          "name": "passs",
          "type": "uint256"
        }
      ],
      "name": "Sendpoints",
      "outputs": [],
      "stateMutability": "nonpayable",
      "type": "function"
    },
    {
      "inputs": [
        {
          "internalType": "string",
          "name": "_des",
          "type": "string"
        },
        {
          "internalType": "uint256",
          "name": "_total",
          "type": "uint256"
        },
        {
          "internalType": "uint256",
          "name": "passs",
          "type": "uint256"
        }
      ],
      "name": "Contri_req",
      "outputs": [],
      "stateMutability": "nonpayable",
      "type": "function"
    },
    {
      "inputs": [
        {
          "internalType": "uint256",
          "name": "req_no",
          "type": "uint256"
        },
        {
          "internalType": "address",
          "name": "ad",
          "type": "address"
        },
        {
          "internalType": "uint256",
          "name": "x",
          "type": "uint256"
        }
      ],
      "name": "Pay",
      "outputs": [],
      "stateMutability": "nonpayable",
      "type": "function"
    },
    {
      "inputs": [
        {
          "internalType": "uint256",
          "name": "num",
          "type": "uint256"
        },
        {
          "internalType": "uint256",
          "name": "val",
          "type": "uint256"
        }
      ],
      "name": "ViewPayee",
      "outputs": [
        {
          "internalType": "string",
          "name": "",
          "type": "string"
        }
      ],
      "stateMutability": "view",
      "type": "function",
      "constant": true
    },
    {
      "inputs": [
        {
          "internalType": "uint256",
          "name": "num",
          "type": "uint256"
        }
      ],
      "name": "View_des",
      "outputs": [
        {
          "internalType": "string",
          "name": "",
          "type": "string"
        }
      ],
      "stateMutability": "view",
      "type": "function",
      "constant": true
    },
    {
      "inputs": [
        {
          "internalType": "uint256",
          "name": "num",
          "type": "uint256"
        }
      ],
      "name": "View_total",
      "outputs": [
        {
          "internalType": "uint256",
          "name": "",
          "type": "uint256"
        }
      ],
      "stateMutability": "view",
      "type": "function",
      "constant": true
    },
    {
      "inputs": [
        {
          "internalType": "uint256",
          "name": "num",
          "type": "uint256"
        }
      ],
      "name": "View_person",
      "outputs": [
        {
          "internalType": "uint256",
          "name": "",
          "type": "uint256"
        }
      ],
      "stateMutability": "view",
      "type": "function",
      "constant": true
    },
    {
      "inputs": [
        {
          "internalType": "uint256",
          "name": "num",
          "type": "uint256"
        }
      ],
      "name": "View_remaining",
      "outputs": [
        {
          "internalType": "uint256",
          "name": "",
          "type": "uint256"
        }
      ],
      "stateMutability": "view",
      "type": "function",
      "constant": true
    },
    {
      "inputs": [
        {
          "internalType": "uint256",
          "name": "num",
          "type": "uint256"
        }
      ],
      "name": "View_client",
      "outputs": [
        {
          "internalType": "uint256",
          "name": "",
          "type": "uint256"
        }
      ],
      "stateMutability": "view",
      "type": "function",
      "constant": true
    },
    {
      "inputs": [
        {
          "internalType": "uint256",
          "name": "num",
          "type": "uint256"
        }
      ],
      "name": "View_status",
      "outputs": [
        {
          "internalType": "string",
          "name": "",
          "type": "string"
        }
      ],
      "stateMutability": "view",
      "type": "function",
      "constant": true
    }
  ],
  "bytecode": "0x608060405273d377254722d3274f66eb66c392925f6052335ccb6000806101000a81548173ffffffffffffffffffffffffffffffffffffffff021916908373ffffffffffffffffffffffffffffffffffffffff1602179055506000600155600060025562051ece6003556000600555600060095562051ece600a556000600f5534801561008b57600080fd5b50612ad98061009b6000396000f3fe6080604052600436106101f95760003560e01c80638ab66a901161010d578063d219d26e116100a0578063ed0ed7241161006f578063ed0ed72414610826578063f944a5cf14610863578063fbccc841146108a0578063fc0803a1146108c9578063fd89bf02146108f2576101f9565b8063d219d26e14610758578063d2af2aa114610781578063d50d57ab146107be578063d9c7cd99146107e9576101f9565b8063a577c51b116100dc578063a577c51b14610676578063b69ef8a8146106b3578063b90d3d0c146106de578063ca7cf4b51461071b576101f9565b80638ab66a90146105b75780638f2313c3146105f45780639da6493a146106315780639f16ef7f1461064d576101f9565b8063481c6a75116101905780636969340a1161015f5780636969340a146104aa5780636d705ebb146104e75780637260418f1461051057806381d12c581461053957806385b0bbcf1461057a576101f9565b8063481c6a75146103dc5780634e1bf2a11461040757806359114abf146104305780635e22c14d1461046d576101f9565b80633591cba3116101cc5780633591cba3146102e55780634129c6e01461032257806342388c801461035f578063469e90671461039c576101f9565b806312065fe0146101fe57806314397bfc146102295780631f0bb4211461026b57806332647c8a146102a8575b600080fd5b34801561020a57600080fd5b5061021361090e565b604051610220919061211a565b60405180910390f35b34801561023557600080fd5b50610250600480360381019061024b9190612175565b610918565b6040516102629695949392919061223b565b60405180910390f35b34801561027757600080fd5b50610292600480360381019061028d9190612308565b610a64565b60405161029f919061211a565b60405180910390f35b3480156102b457600080fd5b506102cf60048036038101906102ca9190612175565b610a7c565b6040516102dc919061211a565b60405180910390f35b3480156102f157600080fd5b5061030c60048036038101906103079190612175565b610a9c565b6040516103199190612335565b60405180910390f35b34801561032e57600080fd5b5061034960048036038101906103449190612175565b610b44565b6040516103569190612335565b60405180910390f35b34801561036b57600080fd5b5061038660048036038101906103819190612357565b610bec565b6040516103939190612335565b60405180910390f35b3480156103a857600080fd5b506103c360048036038101906103be9190612308565b610cbd565b6040516103d39493929190612397565b60405180910390f35b3480156103e857600080fd5b506103f1610d75565b6040516103fe91906123f2565b60405180910390f35b34801561041357600080fd5b5061042e6004803603810190610429919061240d565b610d99565b005b34801561043c57600080fd5b5061045760048036038101906104529190612175565b610e05565b604051610464919061211a565b60405180910390f35b34801561047957600080fd5b50610494600480360381019061048f9190612175565b610e25565b6040516104a19190612335565b60405180910390f35b3480156104b657600080fd5b506104d160048036038101906104cc9190612175565b610ecd565b6040516104de919061211a565b60405180910390f35b3480156104f357600080fd5b5061050e60048036038101906105099190612460565b610eeb565b005b34801561051c57600080fd5b50610537600480360381019061053291906125d5565b610fc4565b005b34801561054557600080fd5b50610560600480360381019061055b9190612175565b611134565b60405161057195949392919061265f565b60405180910390f35b34801561058657600080fd5b506105a1600480360381019061059c9190612308565b611287565b6040516105ae919061211a565b60405180910390f35b3480156105c357600080fd5b506105de60048036038101906105d99190612308565b61129f565b6040516105eb919061211a565b60405180910390f35b34801561060057600080fd5b5061061b60048036038101906106169190612175565b6112b7565b604051610628919061211a565b60405180910390f35b61064b600480360381019061064691906126fe565b6112d7565b005b34801561065957600080fd5b50610674600480360381019061066f919061240d565b611495565b005b34801561068257600080fd5b5061069d60048036038101906106989190612460565b611625565b6040516106aa919061211a565b60405180910390f35b3480156106bf57600080fd5b506106c86116c0565b6040516106d5919061211a565b60405180910390f35b3480156106ea57600080fd5b5061070560048036038101906107009190612308565b6116c6565b604051610712919061211a565b60405180910390f35b34801561072757600080fd5b50610742600480360381019061073d9190612175565b6116de565b60405161074f919061211a565b60405180910390f35b34801561076457600080fd5b5061077f600480360381019061077a919061240d565b6116fe565b005b34801561078d57600080fd5b506107a860048036038101906107a39190612460565b611a24565b6040516107b5919061211a565b60405180910390f35b3480156107ca57600080fd5b506107d3611ab9565b6040516107e091906123f2565b60405180910390f35b3480156107f557600080fd5b50610810600480360381019061080b9190612460565b611ae2565b60405161081d9190612335565b60405180910390f35b34801561083257600080fd5b5061084d60048036038101906108489190612175565b611c05565b60405161085a9190612335565b60405180910390f35b34801561086f57600080fd5b5061088a60048036038101906108859190612175565b611cad565b604051610897919061211a565b60405180910390f35b3480156108ac57600080fd5b506108c760048036038101906108c29190612751565b611ccd565b005b3480156108d557600080fd5b506108f060048036038101906108eb9190612751565b611da9565b005b61090c600480360381019061090791906127c0565b611eb8565b005b6000600154905090565b600e60205280600052604060002060009150905080600001805461093b9061281c565b80601f01602080910402602001604051908101604052809291908181526020018280546109679061281c565b80156109b45780601f10610989576101008083540402835291602001916109b4565b820191906000526020600020905b81548152906001019060200180831161099757829003601f168201915b5050505050908060010154908060020154908060030154908060040154908060050180546109e19061281c565b80601f0160208091040260200160405190810160405280929190818152602001828054610a0d9061281c565b8015610a5a5780601f10610a2f57610100808354040283529160200191610a5a565b820191906000526020600020905b815481529060010190602001808311610a3d57829003601f168201915b5050505050905086565b600c6020528060005260406000206000915090505481565b6000600e6000838152602001908152602001600020600201549050919050565b6060600e60008381526020019081526020016000206000018054610abf9061281c565b80601f0160208091040260200160405190810160405280929190818152602001828054610aeb9061281c565b8015610b385780601f10610b0d57610100808354040283529160200191610b38565b820191906000526020600020905b815481529060010190602001808311610b1b57829003601f168201915b50505050509050919050565b6060600e60008381526020019081526020016000206005018054610b679061281c565b80601f0160208091040260200160405190810160405280929190818152602001828054610b939061281c565b8015610be05780601f10610bb557610100808354040283529160200191610be0565b820191906000526020600020905b815481529060010190602001808311610bc357829003601f168201915b50505050509050919050565b6060600d6000848152602001908152602001600020600001600183610c11919061287c565b81548110610c2257610c216128b0565b5b906000526020600020018054610c379061281c565b80601f0160208091040260200160405190810160405280929190818152602001828054610c639061281c565b8015610cb05780601f10610c8557610100808354040283529160200191610cb0565b820191906000526020600020905b815481529060010190602001808311610c9357829003601f168201915b5050505050905092915050565b600b602052806000526040600020600091509050806000018054610ce09061281c565b80601f0160208091040260200160405190810160405280929190818152602001828054610d0c9061281c565b8015610d595780601f10610d2e57610100808354040283529160200191610d59565b820191906000526020600020905b815481529060010190602001808311610d3c57829003601f168201915b5050505050908060010154908060020154908060030154905084565b60008054906101000a900473ffffffffffffffffffffffffffffffffffffffff1681565b80600a5414610da757600080fd5b82600b60008473ffffffffffffffffffffffffffffffffffffffff1673ffffffffffffffffffffffffffffffffffffffff1681526020019081526020016000206001016000828254610df991906128df565b92505081905550505050565b600060046000838152602001908152602001600020600101549050919050565b6060600460008381526020019081526020016000206000018054610e489061281c565b80601f0160208091040260200160405190810160405280929190818152602001828054610e749061281c565b8015610ec15780601f10610e9657610100808354040283529160200191610ec1565b820191906000526020600020905b815481529060010190602001808311610ea457829003601f168201915b50505050509050919050565b600d6020528060005260406000206000915090508060010154905081565b6000600860008473ffffffffffffffffffffffffffffffffffffffff1673ffffffffffffffffffffffffffffffffffffffff1681526020019081526020016000205414610f3757600080fd5b6001600860008473ffffffffffffffffffffffffffffffffffffffff1673ffffffffffffffffffffffffffffffffffffffff1681526020019081526020016000208190555080600760008473ffffffffffffffffffffffffffffffffffffffff1673ffffffffffffffffffffffffffffffffffffffff168152602001908152602001600020819055505050565b6000600c60008473ffffffffffffffffffffffffffffffffffffffff1673ffffffffffffffffffffffffffffffffffffffff168152602001908152602001600020541461101057600080fd5b6000600b60008473ffffffffffffffffffffffffffffffffffffffff1673ffffffffffffffffffffffffffffffffffffffff16815260200190815260200160002090508381600001908051906020019061106b929190611fd1565b5060008160010181905550818160020181905550600081600301819055506000600c60008573ffffffffffffffffffffffffffffffffffffffff1673ffffffffffffffffffffffffffffffffffffffff16815260200190815260200160002054036110e957600960008154809291906110e390612935565b91905055505b6001600c60008573ffffffffffffffffffffffffffffffffffffffff1673ffffffffffffffffffffffffffffffffffffffff1681526020019081526020016000208190555050505050565b60046020528060005260406000206000915090508060000180546111579061281c565b80601f01602080910402602001604051908101604052809291908181526020018280546111839061281c565b80156111d05780601f106111a5576101008083540402835291602001916111d0565b820191906000526020600020905b8154815290600101906020018083116111b357829003601f168201915b5050505050908060010154908060020180546111eb9061281c565b80601f01602080910402602001604051908101604052809291908181526020018280546112179061281c565b80156112645780601f1061123957610100808354040283529160200191611264565b820191906000526020600020905b81548152906001019060200180831161124757829003601f168201915b5050505050908060030160009054906101000a900460ff16908060050154905085565b60076020528060005260406000206000915090505481565b60086020528060005260406000206000915090505481565b6000600e6000838152602001908152602001600020600401549050919050565b600354811461131b576040517f08c379a0000000000000000000000000000000000000000000000000000000008152600401611312906129c9565b60405180910390fd5b6002546002600460008681526020019081526020016000206005015461134191906129e9565b1161134b57600080fd5b600015156004600085815260200190815260200160002060030160009054906101000a900460ff1615151461137f57600080fd5b600460008481526020019081526020016000206001015434146113a157600080fd5b8173ffffffffffffffffffffffffffffffffffffffff166108fc349081150290604051600060405180830381858888f193505050501580156113e7573d6000803e3d6000fd5b5034600160008282546113fa919061287c565b925050819055506040518060400160405280600981526020017f436f6d706c657465640000000000000000000000000000000000000000000000815250600460008581526020019081526020016000206002019080519060200190611460929190611fd1565b5060016004600085815260200190815260200160002060030160006101000a81548160ff021916908315150217905550505050565b6000600660008473ffffffffffffffffffffffffffffffffffffffff1673ffffffffffffffffffffffffffffffffffffffff16815260200190815260200160002054036114e157600080fd5b80600760008473ffffffffffffffffffffffffffffffffffffffff1673ffffffffffffffffffffffffffffffffffffffff168152602001908152602001600020541461152c57600080fd5b60055483111561153b57600080fd5b60006004600085815260200190815260200160002060040160008473ffffffffffffffffffffffffffffffffffffffff1673ffffffffffffffffffffffffffffffffffffffff168152602001908152602001600020541461159b57600080fd5b60016004600085815260200190815260200160002060040160008473ffffffffffffffffffffffffffffffffffffffff1673ffffffffffffffffffffffffffffffffffffffff1681526020019081526020016000208190555060046000848152602001908152602001600020600501600081548092919061161b90612935565b9190505550505050565b600081600b60008573ffffffffffffffffffffffffffffffffffffffff1673ffffffffffffffffffffffffffffffffffffffff168152602001908152602001600020600201541461167557600080fd5b600b60008473ffffffffffffffffffffffffffffffffffffffff1673ffffffffffffffffffffffffffffffffffffffff16815260200190815260200160002060010154905092915050565b60015481565b60066020528060005260406000206000915090505481565b6000600e6000838152602001908152602001600020600301549050919050565b80600b60008473ffffffffffffffffffffffffffffffffffffffff1673ffffffffffffffffffffffffffffffffffffffff168152602001908152602001600020600201541461174c57600080fd5b600e600084815260200190815260200160002060020154600b60008473ffffffffffffffffffffffffffffffffffffffff1673ffffffffffffffffffffffffffffffffffffffff1681526020019081526020016000206001015410156117b157600080fd5b600e600084815260200190815260200160002060020154600b60008473ffffffffffffffffffffffffffffffffffffffff1673ffffffffffffffffffffffffffffffffffffffff16815260200190815260200160002060010154611815919061287c565b600b60008473ffffffffffffffffffffffffffffffffffffffff1673ffffffffffffffffffffffffffffffffffffffff16815260200190815260200160002060010181905550600e600084815260200190815260200160002060020154600e6000858152602001908152602001600020600301600082825461189791906128df565b92505081905550600e600084815260200190815260200160002060010154600e60008581526020019081526020016000206003015410611932576040518060400160405280600981526020017f436f6d706c657465640000000000000000000000000000000000000000000000815250600e60008581526020019081526020016000206005019080519060200190611930929190611fd1565b505b600d6000848152602001908152602001600020600101600081548092919061195990612935565b9190505550600d6000848152602001908152602001600020600001600b60008473ffffffffffffffffffffffffffffffffffffffff1673ffffffffffffffffffffffffffffffffffffffff168152602001908152602001600020600001908060018154018082558091505060019003906000526020600020016000909190919091509080546119e79061281c565b6119f2929190612057565b50600e60008481526020019081526020016000206004016000815480929190611a1a90612935565b9190505550505050565b600081600760008573ffffffffffffffffffffffffffffffffffffffff1673ffffffffffffffffffffffffffffffffffffffff1681526020019081526020016000205414611a7157600080fd5b600660008473ffffffffffffffffffffffffffffffffffffffff1673ffffffffffffffffffffffffffffffffffffffff16815260200190815260200160002054905092915050565b60008060009054906101000a900473ffffffffffffffffffffffffffffffffffffffff16905090565b606081600b60008573ffffffffffffffffffffffffffffffffffffffff1673ffffffffffffffffffffffffffffffffffffffff1681526020019081526020016000206002015414611b3257600080fd5b600b60008473ffffffffffffffffffffffffffffffffffffffff1673ffffffffffffffffffffffffffffffffffffffff1681526020019081526020016000206000018054611b7f9061281c565b80601f0160208091040260200160405190810160405280929190818152602001828054611bab9061281c565b8015611bf85780601f10611bcd57610100808354040283529160200191611bf8565b820191906000526020600020905b815481529060010190602001808311611bdb57829003601f168201915b5050505050905092915050565b6060600460008381526020019081526020016000206002018054611c289061281c565b80601f0160208091040260200160405190810160405280929190818152602001828054611c549061281c565b8015611ca15780601f10611c7657610100808354040283529160200191611ca1565b820191906000526020600020905b815481529060010190602001808311611c8457829003601f168201915b50505050509050919050565b6000600e6000838152602001908152602001600020600101549050919050565b6003548114611cdb57600080fd5b60056000815480929190611cee90612935565b91905055506000600460006005548152602001908152602001600020905083816000019080519060200190611d24929190611fd1565b508281600101819055506040518060400160405280600d81526020017f4e6f7420436f6d706c6574656400000000000000000000000000000000000000815250816002019080519060200190611d7b929190611fd1565b5060008160030160006101000a81548160ff0219169083151502179055506000816005018190555050505050565b600a548114611db757600080fd5b600f6000815480929190611dca90612935565b91905055506000600e6000600f548152602001908152602001600020905083816000019080519060200190611e00929190611fd1565b50828160010181905550600160095484611e1a9190612a72565b611e2491906128df565b8160020181905550600081600301819055506040518060400160405280600c81526020017f4e6f7420436f6d70657465640000000000000000000000000000000000000000815250816005019080519060200190611e83929190611fd1565b50600081600401819055506000600d6000600f5481526020019081526020016000209050600081600101819055505050505050565b8073ffffffffffffffffffffffffffffffffffffffff166108fc349081150290604051600060405180830381858888f19350505050158015611efe573d6000803e3d6000fd5b506000600660003373ffffffffffffffffffffffffffffffffffffffff1673ffffffffffffffffffffffffffffffffffffffff1681526020019081526020016000205403611f5f5760026000815480929190611f5990612935565b91905055505b34600660003373ffffffffffffffffffffffffffffffffffffffff1673ffffffffffffffffffffffffffffffffffffffff1681526020019081526020016000206000828254611fae91906128df565b925050819055503460016000828254611fc791906128df565b9250508190555050565b828054611fdd9061281c565b90600052602060002090601f016020900481019282611fff5760008555612046565b82601f1061201857805160ff1916838001178555612046565b82800160010185558215612046579182015b8281111561204557825182559160200191906001019061202a565b5b50905061205391906120e4565b5090565b8280546120639061281c565b90600052602060002090601f01602090048101928261208557600085556120d3565b82601f1061209657805485556120d3565b828001600101855582156120d357600052602060002091601f016020900482015b828111156120d25782548255916001019190600101906120b7565b5b5090506120e091906120e4565b5090565b5b808211156120fd5760008160009055506001016120e5565b5090565b6000819050919050565b61211481612101565b82525050565b600060208201905061212f600083018461210b565b92915050565b6000604051905090565b600080fd5b600080fd5b61215281612101565b811461215d57600080fd5b50565b60008135905061216f81612149565b92915050565b60006020828403121561218b5761218a61213f565b5b600061219984828501612160565b91505092915050565b600081519050919050565b600082825260208201905092915050565b60005b838110156121dc5780820151818401526020810190506121c1565b838111156121eb576000848401525b50505050565b6000601f19601f8301169050919050565b600061220d826121a2565b61221781856121ad565b93506122278185602086016121be565b612230816121f1565b840191505092915050565b600060c08201905081810360008301526122558189612202565b9050612264602083018861210b565b612271604083018761210b565b61227e606083018661210b565b61228b608083018561210b565b81810360a083015261229d8184612202565b9050979650505050505050565b600073ffffffffffffffffffffffffffffffffffffffff82169050919050565b60006122d5826122aa565b9050919050565b6122e5816122ca565b81146122f057600080fd5b50565b600081359050612302816122dc565b92915050565b60006020828403121561231e5761231d61213f565b5b600061232c848285016122f3565b91505092915050565b6000602082019050818103600083015261234f8184612202565b905092915050565b6000806040838503121561236e5761236d61213f565b5b600061237c85828601612160565b925050602061238d85828601612160565b9150509250929050565b600060808201905081810360008301526123b18187612202565b90506123c0602083018661210b565b6123cd604083018561210b565b6123da606083018461210b565b95945050505050565b6123ec816122ca565b82525050565b600060208201905061240760008301846123e3565b92915050565b6000806000606084860312156124265761242561213f565b5b600061243486828701612160565b9350506020612445868287016122f3565b925050604061245686828701612160565b9150509250925092565b600080604083850312156124775761247661213f565b5b6000612485858286016122f3565b925050602061249685828601612160565b9150509250929050565b600080fd5b600080fd5b7f4e487b7100000000000000000000000000000000000000000000000000000000600052604160045260246000fd5b6124e2826121f1565b810181811067ffffffffffffffff82111715612501576125006124aa565b5b80604052505050565b6000612514612135565b905061252082826124d9565b919050565b600067ffffffffffffffff8211156125405761253f6124aa565b5b612549826121f1565b9050602081019050919050565b82818337600083830152505050565b600061257861257384612525565b61250a565b905082815260208101848484011115612594576125936124a5565b5b61259f848285612556565b509392505050565b600082601f8301126125bc576125bb6124a0565b5b81356125cc848260208601612565565b91505092915050565b6000806000606084860312156125ee576125ed61213f565b5b600084013567ffffffffffffffff81111561260c5761260b612144565b5b612618868287016125a7565b9350506020612629868287016122f3565b925050604061263a86828701612160565b9150509250925092565b60008115159050919050565b61265981612644565b82525050565b600060a08201905081810360008301526126798188612202565b9050612688602083018761210b565b818103604083015261269a8186612202565b90506126a96060830185612650565b6126b6608083018461210b565b9695505050505050565b60006126cb826122aa565b9050919050565b6126db816126c0565b81146126e657600080fd5b50565b6000813590506126f8816126d2565b92915050565b6000806000606084860312156127175761271661213f565b5b600061272586828701612160565b9350506020612736868287016126e9565b925050604061274786828701612160565b9150509250925092565b60008060006060848603121561276a5761276961213f565b5b600084013567ffffffffffffffff81111561278857612787612144565b5b612794868287016125a7565b93505060206127a586828701612160565b92505060406127b686828701612160565b9150509250925092565b6000602082840312156127d6576127d561213f565b5b60006127e4848285016126e9565b91505092915050565b7f4e487b7100000000000000000000000000000000000000000000000000000000600052602260045260246000fd5b6000600282049050600182168061283457607f821691505b602082108103612847576128466127ed565b5b50919050565b7f4e487b7100000000000000000000000000000000000000000000000000000000600052601160045260246000fd5b600061288782612101565b915061289283612101565b9250828210156128a5576128a461284d565b5b828203905092915050565b7f4e487b7100000000000000000000000000000000000000000000000000000000600052603260045260246000fd5b60006128ea82612101565b91506128f583612101565b9250827fffffffffffffffffffffffffffffffffffffffffffffffffffffffffffffffff0382111561292a5761292961284d565b5b828201905092915050565b600061294082612101565b91507fffffffffffffffffffffffffffffffffffffffffffffffffffffffffffffffff82036129725761297161284d565b5b600182019050919050565b7f496e636f72726563742050617373776f72640000000000000000000000000000600082015250565b60006129b36012836121ad565b91506129be8261297d565b602082019050919050565b600060208201905081810360008301526129e2816129a6565b9050919050565b60006129f482612101565b91506129ff83612101565b9250817fffffffffffffffffffffffffffffffffffffffffffffffffffffffffffffffff0483118215151615612a3857612a3761284d565b5b828202905092915050565b7f4e487b7100000000000000000000000000000000000000000000000000000000600052601260045260246000fd5b6000612a7d82612101565b9150612a8883612101565b925082612a9857612a97612a43565b5b82820490509291505056fea2646970667358221220aeadca3f2e34f7b3fa52cd9453f33fff5a82efc69872cfa098fb912b9f96679f64736f6c634300080d0033",
  "immutableReferences": {},
  "source": "/*This is the smart contract of a CrowdFunding DApp that I have made.\r\n  It contains manager as the person that deployed the contract and the following major functions:-\r\n  1)register()-> for the registration of a person that want to donate.\r\n  2)Find(address r,uint password)-> To check how much you have donated.\r\n  3)SendEth()->to send etherum to manager\r\n  4)createRequest()->to create a request by manager stating the amount of money required for a particular purpose\r\n  5)viewD,viewM,viewS()-> to find the description,money required and status of request created by manager\r\n  6)voting()-> Used by donators to vote for a particular request to ensure proper use of their money\r\n  7)Withdraw()->Used my manager to withdraw the money of a particular request if the votes given for this request is in majority\r\n  It also contains Request class to store data of a request and map 'requests' for storing different Request\r\n  It contains maps naming data,passcode and candidates for storing the money contributed by a given address,\r\n  passwords associated with different registerd accounts and if a account has registerd or not respectively.\r\n  */\r\n\r\n//SPDX-License-Identifier:MIT\r\npragma solidity >=0.5.0 <0.9.0;\r\n\r\ncontract CrowdFund{\r\n    address public manager=0xd377254722D3274f66eB66c392925F6052335CcB;\r\n    uint public balance=0;\r\n   uint  total=0;\r\n    uint  pass=335566;\r\n   \r\n   struct Request{\r\n    string description;\r\n    uint num;\r\n    string status;\r\n    bool completed;\r\n    mapping(address=>uint) voted;\r\n    uint votes;\r\n    \r\n \r\n}\r\n\r\nmapping(uint=>Request) public requests;\r\nuint number=0;\r\nfunction createRequest(string memory d,uint x,uint p) public {\r\n require(p==pass);\r\nnumber++;\r\nRequest storage newdata=requests[number];\r\n\r\nnewdata.description=d;newdata.num=x;newdata.status=\"Not Completed\";newdata.completed=false;\r\nnewdata.votes=0;\r\n\r\n}\r\n\r\nfunction viewD(uint id) public view returns(string memory){\r\n    return requests[id].description;\r\n}\r\nfunction viewM(uint id) public view returns(uint){\r\n    return requests[id].num;\r\n}\r\nfunction viewS(uint id) public view returns(string memory){\r\n    return requests[id].status;\r\n}\r\n\r\n\r\n    mapping(address=>uint) public data;\r\n    mapping (address=>uint) public passcode;\r\n    mapping(address=>uint) public candidates;\r\n\r\n    \r\n\r\n    \r\n\r\n    function voting(uint no,address a,uint p) public {\r\n        require(data[a]!=0);\r\n        require(passcode[a]==p);\r\n        require(no <=number);\r\n        require(requests[no].voted[a]==0);\r\n        requests[no].voted[a]=1;\r\n        requests[no].votes++;\r\n    }\r\n\r\n    function register(address a,uint b) public{\r\n        require(candidates[a]==0);\r\n        candidates[a]=1;\r\n        passcode[a]=b;\r\n    }\r\n\r\nfunction SendEth(address payable x) public payable{\r\n    // require(x==manager);\r\n   \r\n    x.transfer(msg.value);\r\n    if(data[msg.sender]==0)total++;\r\n    data[msg.sender]+=msg.value;\r\n    balance+=msg.value;\r\n   \r\n\r\n}\r\n\r\nfunction Withdraw(uint id,address payable x,uint password) public payable{\r\n    require(password==pass,\"Incorrect Password\");\r\n    require((requests[id].votes)*2>total);\r\n    require(requests[id].completed==false);\r\n    require(msg.value==requests[id].num);\r\n    x.transfer(msg.value);\r\n    balance-=msg.value;\r\n  requests[id].status=\"Completed\";\r\n    requests[id].completed=true;\r\n}\r\nfunction ManagerAddress() public view returns(address){\r\n    return manager;\r\n}\r\n\r\nfunction getBalance() public view returns(uint){\r\n    return balance;\r\n}\r\n\r\n\r\nfunction Find(address  r,uint p) public view  returns(uint){\r\nrequire(passcode[r]==p);\r\nreturn data[r]; \r\n    \r\n}\r\n\r\n uint people=0;\r\n    uint password=335566;\r\n\r\n    struct MyAccount{\r\n    string name;\r\n    uint points;\r\n    uint passcode;\r\n    \r\n    uint paid;\r\n    uint[] paidArray;\r\n    \r\n    \r\n    \r\n    \r\n \r\n}\r\n\r\nmapping(address=>MyAccount) public records;\r\nmapping(address=>uint ) public records3;\r\n\r\nfunction Signup(string memory _name,address ad,uint _p) public{\r\n    require(records3[ad]==0);\r\n    MyAccount storage newdata=records[ad];\r\n    newdata.name=_name;\r\n    newdata.points=0;\r\n    newdata.passcode=_p;\r\n    newdata.paid=0;\r\n\r\n    \r\n    if(records3[ad]==0)\r\n    people++;\r\n\r\n    records3[ad]=1;\r\n}\r\n\r\nfunction Profile_name(address ad,uint passs) public view returns(string memory){\r\n    require(records[ad].passcode==passs);\r\n    return records[ad].name;\r\n}\r\n\r\nfunction Profile_points(address ad,uint passs) public view returns(uint){\r\n    require(records[ad].passcode==passs);\r\n    return records[ad].points;\r\n}\r\n\r\nfunction Sendpoints(uint x,address ad,uint passs) public {\r\nrequire(password==passs);\r\nrecords[ad].points+=x;\r\n}\r\n\r\nstruct Contri{\r\n    string des;\r\n    uint total;\r\n    uint person;\r\n    uint collected;\r\n    uint client;\r\n    string status;\r\n}\r\nstruct Payees{\r\n    string[]   names;\r\n    uint totall;\r\n\r\n}\r\nmapping(uint=>Payees) public records2;\r\n\r\nmapping(uint=>Contri) public records1;\r\nuint contri_num=0;\r\nfunction Contri_req(string memory _des,uint _total,uint passs) public {\r\n    require(passs==password);\r\n    contri_num++;\r\n    Contri storage newdata=records1[contri_num];\r\n    newdata.des=_des;\r\n    newdata.total=_total;\r\n    newdata.person=(_total/people)+1;\r\n    newdata.collected=0;\r\n    newdata.status=\"Not Competed\";\r\n    newdata.client=0;\r\n    Payees storage payee=records2[contri_num];\r\n    payee.totall=0;\r\n}\r\n\r\nfunction Pay(uint req_no,address ad,uint x) public {\r\n   require(records[ad].passcode==x);\r\n    require(records[ad].points>=records1[req_no].person);\r\n    records[ad].points=(records[ad].points)-(records1[req_no].person);\r\n    records1[req_no].collected+=(records1[req_no].person);\r\n    if(records1[req_no].collected>=records1[req_no].total)records1[req_no].status=\"Completed\";\r\n    records2[req_no].totall++;\r\n    (records2[req_no].names).push(records[ad].name);\r\n    records1[req_no].client++;\r\n\r\n\r\n}\r\nfunction ViewPayee(uint num,uint val) public view returns(string memory){\r\n    return (records2[num].names)[val-1];\r\n}\r\n\r\nfunction View_des(uint num) public view returns(string memory){\r\nreturn records1[num].des;\r\n}\r\nfunction View_total(uint num) public view returns(uint){\r\nreturn records1[num].total;\r\n}\r\nfunction View_person(uint num) public view returns(uint){\r\nreturn records1[num].person;\r\n}\r\nfunction View_remaining(uint num) public view returns(uint){\r\nreturn records1[num].collected;\r\n}\r\nfunction View_client(uint num) public view returns(uint){\r\nreturn records1[num].client;\r\n}\r\nfunction View_status(uint num) public view returns(string memory){\r\nreturn records1[num].status;\r\n}\r\n    \r\n}",
  "sourcePath": "C:\\Users\\aryan\\OneDrive\\Desktop\\NewApp\\Crowd-funding-dapp\\contracts\\CrowdFund.sol",
  "compiler": {
    "name": "solc",
    "version": "0.8.13+commit.abaa5c0e.Emscripten.clang"
  },
  "schemaVersion": "3.4.16",
  "updatedAt": "2023-12-14T11:53:40.775Z",
  "networkType": "ethereum",
  "devdoc": {
    "kind": "dev",
    "methods": {},
    "version": 1
  },
  "userdoc": {
    "kind": "user",
    "methods": {},
    "version": 1
  }
}