{
  "contractName": "CrowdFund",
  "abi": [
    {
      "inputs": [],
      "name": "balance",
      "outputs": [
        {
          "internalType": "uint256",
          "name": "",
          "type": "uint256"
        }
      ],
      "stateMutability": "view",
      "type": "function",
      "constant": true
    },
    {
      "inputs": [
        {
          "internalType": "address",
          "name": "",
          "type": "address"
        }
      ],
      "name": "candidates",
      "outputs": [
        {
          "internalType": "uint256",
          "name": "",
          "type": "uint256"
        }
      ],
      "stateMutability": "view",
      "type": "function",
      "constant": true
    },
    {
      "inputs": [
        {
          "internalType": "address",
          "name": "",
          "type": "address"
        }
      ],
      "name": "data",
      "outputs": [
        {
          "internalType": "uint256",
          "name": "",
          "type": "uint256"
        }
      ],
      "stateMutability": "view",
      "type": "function",
      "constant": true
    },
    {
      "inputs": [],
      "name": "manager",
      "outputs": [
        {
          "internalType": "address",
          "name": "",
          "type": "address"
        }
      ],
      "stateMutability": "view",
      "type": "function",
      "constant": true
    },
    {
      "inputs": [
        {
          "internalType": "address",
          "name": "",
          "type": "address"
        }
      ],
      "name": "passcode",
      "outputs": [
        {
          "internalType": "uint256",
          "name": "",
          "type": "uint256"
        }
      ],
      "stateMutability": "view",
      "type": "function",
      "constant": true
    },
    {
      "inputs": [
        {
          "internalType": "address",
          "name": "",
          "type": "address"
        }
      ],
      "name": "records",
      "outputs": [
        {
          "internalType": "string",
          "name": "name",
          "type": "string"
        },
        {
          "internalType": "uint256",
          "name": "points",
          "type": "uint256"
        },
        {
          "internalType": "uint256",
          "name": "passcode",
          "type": "uint256"
        }
      ],
      "stateMutability": "view",
      "type": "function",
      "constant": true
    },
    {
      "inputs": [
        {
          "internalType": "uint256",
          "name": "",
          "type": "uint256"
        }
      ],
      "name": "records1",
      "outputs": [
        {
          "internalType": "string",
          "name": "des",
          "type": "string"
        },
        {
          "internalType": "uint256",
          "name": "total",
          "type": "uint256"
        },
        {
          "internalType": "uint256",
          "name": "person",
          "type": "uint256"
        },
        {
          "internalType": "uint256",
          "name": "collected",
          "type": "uint256"
        },
        {
          "internalType": "uint256",
          "name": "client",
          "type": "uint256"
        },
        {
          "internalType": "string",
          "name": "status",
          "type": "string"
        }
      ],
      "stateMutability": "view",
      "type": "function",
      "constant": true
    },
    {
      "inputs": [
        {
          "internalType": "uint256",
          "name": "",
          "type": "uint256"
        }
      ],
      "name": "records2",
      "outputs": [
        {
          "internalType": "uint256",
          "name": "totall",
          "type": "uint256"
        }
      ],
      "stateMutability": "view",
      "type": "function",
      "constant": true
    },
    {
      "inputs": [
        {
          "internalType": "address",
          "name": "",
          "type": "address"
        }
      ],
      "name": "records3",
      "outputs": [
        {
          "internalType": "uint256",
          "name": "",
          "type": "uint256"
        }
      ],
      "stateMutability": "view",
      "type": "function",
      "constant": true
    },
    {
      "inputs": [
        {
          "internalType": "uint256",
          "name": "",
          "type": "uint256"
        }
      ],
      "name": "requests",
      "outputs": [
        {
          "internalType": "string",
          "name": "description",
          "type": "string"
        },
        {
          "internalType": "uint256",
          "name": "num",
          "type": "uint256"
        },
        {
          "internalType": "string",
          "name": "status",
          "type": "string"
        },
        {
          "internalType": "bool",
          "name": "completed",
          "type": "bool"
        },
        {
          "internalType": "uint256",
          "name": "votes",
          "type": "uint256"
        }
      ],
      "stateMutability": "view",
      "type": "function",
      "constant": true
    },
    {
      "inputs": [
        {
          "internalType": "string",
          "name": "d",
          "type": "string"
        },
        {
          "internalType": "uint256",
          "name": "x",
          "type": "uint256"
        },
        {
          "internalType": "uint256",
          "name": "p",
          "type": "uint256"
        }
      ],
      "name": "createRequest",
      "outputs": [],
      "stateMutability": "nonpayable",
      "type": "function"
    },
    {
      "inputs": [
        {
          "internalType": "uint256",
          "name": "id",
          "type": "uint256"
        }
      ],
      "name": "viewD",
      "outputs": [
        {
          "internalType": "string",
          "name": "",
          "type": "string"
        }
      ],
      "stateMutability": "view",
      "type": "function",
      "constant": true
    },
    {
      "inputs": [
        {
          "internalType": "uint256",
          "name": "id",
          "type": "uint256"
        }
      ],
      "name": "viewM",
      "outputs": [
        {
          "internalType": "uint256",
          "name": "",
          "type": "uint256"
        }
      ],
      "stateMutability": "view",
      "type": "function",
      "constant": true
    },
    {
      "inputs": [
        {
          "internalType": "uint256",
          "name": "id",
          "type": "uint256"
        }
      ],
      "name": "viewS",
      "outputs": [
        {
          "internalType": "string",
          "name": "",
          "type": "string"
        }
      ],
      "stateMutability": "view",
      "type": "function",
      "constant": true
    },
    {
      "inputs": [
        {
          "internalType": "uint256",
          "name": "no",
          "type": "uint256"
        },
        {
          "internalType": "address",
          "name": "a",
          "type": "address"
        },
        {
          "internalType": "uint256",
          "name": "p",
          "type": "uint256"
        }
      ],
      "name": "voting",
      "outputs": [],
      "stateMutability": "nonpayable",
      "type": "function"
    },
    {
      "inputs": [
        {
          "internalType": "address",
          "name": "a",
          "type": "address"
        },
        {
          "internalType": "uint256",
          "name": "b",
          "type": "uint256"
        }
      ],
      "name": "register",
      "outputs": [],
      "stateMutability": "nonpayable",
      "type": "function"
    },
    {
      "inputs": [
        {
          "internalType": "address payable",
          "name": "x",
          "type": "address"
        }
      ],
      "name": "SendEth",
      "outputs": [],
      "stateMutability": "payable",
      "type": "function",
      "payable": true
    },
    {
      "inputs": [
        {
          "internalType": "uint256",
          "name": "id",
          "type": "uint256"
        },
        {
          "internalType": "address payable",
          "name": "x",
          "type": "address"
        },
        {
          "internalType": "uint256",
          "name": "password",
          "type": "uint256"
        }
      ],
      "name": "Withdraw",
      "outputs": [],
      "stateMutability": "payable",
      "type": "function",
      "payable": true
    },
    {
      "inputs": [],
      "name": "ManagerAddress",
      "outputs": [
        {
          "internalType": "address",
          "name": "",
          "type": "address"
        }
      ],
      "stateMutability": "view",
      "type": "function",
      "constant": true
    },
    {
      "inputs": [],
      "name": "getBalance",
      "outputs": [
        {
          "internalType": "uint256",
          "name": "",
          "type": "uint256"
        }
      ],
      "stateMutability": "view",
      "type": "function",
      "constant": true
    },
    {
      "inputs": [
        {
          "internalType": "address",
          "name": "r",
          "type": "address"
        },
        {
          "internalType": "uint256",
          "name": "p",
          "type": "uint256"
        }
      ],
      "name": "Find",
      "outputs": [
        {
          "internalType": "uint256",
          "name": "",
          "type": "uint256"
        }
      ],
      "stateMutability": "view",
      "type": "function",
      "constant": true
    },
    {
      "inputs": [
        {
          "internalType": "string",
          "name": "_name",
          "type": "string"
        },
        {
          "internalType": "address",
          "name": "ad",
          "type": "address"
        },
        {
          "internalType": "uint256",
          "name": "_p",
          "type": "uint256"
        }
      ],
      "name": "Signup",
      "outputs": [],
      "stateMutability": "nonpayable",
      "type": "function"
    },
    {
      "inputs": [
        {
          "internalType": "address",
          "name": "ad",
          "type": "address"
        },
        {
          "internalType": "uint256",
          "name": "passs",
          "type": "uint256"
        }
      ],
      "name": "Profile_name",
      "outputs": [
        {
          "internalType": "string",
          "name": "",
          "type": "string"
        }
      ],
      "stateMutability": "view",
      "type": "function",
      "constant": true
    },
    {
      "inputs": [
        {
          "internalType": "address",
          "name": "ad",
          "type": "address"
        },
        {
          "internalType": "uint256",
          "name": "passs",
          "type": "uint256"
        }
      ],
      "name": "Profile_points",
      "outputs": [
        {
          "internalType": "uint256",
          "name": "",
          "type": "uint256"
        }
      ],
      "stateMutability": "view",
      "type": "function",
      "constant": true
    },
    {
      "inputs": [
        {
          "internalType": "uint256",
          "name": "x",
          "type": "uint256"
        },
        {
          "internalType": "address",
          "name": "ad",
          "type": "address"
        },
        {
          "internalType": "uint256",
          "name": "passs",
          "type": "uint256"
        }
      ],
      "name": "Sendpoints",
      "outputs": [],
      "stateMutability": "nonpayable",
      "type": "function"
    },
    {
      "inputs": [
        {
          "internalType": "string",
          "name": "_des",
          "type": "string"
        },
        {
          "internalType": "uint256",
          "name": "_total",
          "type": "uint256"
        },
        {
          "internalType": "uint256",
          "name": "passs",
          "type": "uint256"
        }
      ],
      "name": "Contri_req",
      "outputs": [],
      "stateMutability": "nonpayable",
      "type": "function"
    },
    {
      "inputs": [
        {
          "internalType": "uint256",
          "name": "req_no",
          "type": "uint256"
        },
        {
          "internalType": "address",
          "name": "ad",
          "type": "address"
        },
        {
          "internalType": "uint256",
          "name": "x",
          "type": "uint256"
        }
      ],
      "name": "Pay",
      "outputs": [],
      "stateMutability": "nonpayable",
      "type": "function"
    },
    {
      "inputs": [
        {
          "internalType": "uint256",
          "name": "num",
          "type": "uint256"
        },
        {
          "internalType": "uint256",
          "name": "val",
          "type": "uint256"
        }
      ],
      "name": "ViewPayee",
      "outputs": [
        {
          "internalType": "string",
          "name": "",
          "type": "string"
        }
      ],
      "stateMutability": "view",
      "type": "function",
      "constant": true
    },
    {
      "inputs": [
        {
          "internalType": "uint256",
          "name": "num",
          "type": "uint256"
        }
      ],
      "name": "View_des",
      "outputs": [
        {
          "internalType": "string",
          "name": "",
          "type": "string"
        }
      ],
      "stateMutability": "view",
      "type": "function",
      "constant": true
    },
    {
      "inputs": [
        {
          "internalType": "uint256",
          "name": "num",
          "type": "uint256"
        }
      ],
      "name": "View_total",
      "outputs": [
        {
          "internalType": "uint256",
          "name": "",
          "type": "uint256"
        }
      ],
      "stateMutability": "view",
      "type": "function",
      "constant": true
    },
    {
      "inputs": [
        {
          "internalType": "uint256",
          "name": "num",
          "type": "uint256"
        }
      ],
      "name": "View_person",
      "outputs": [
        {
          "internalType": "uint256",
          "name": "",
          "type": "uint256"
        }
      ],
      "stateMutability": "view",
      "type": "function",
      "constant": true
    },
    {
      "inputs": [
        {
          "internalType": "uint256",
          "name": "num",
          "type": "uint256"
        }
      ],
      "name": "View_remaining",
      "outputs": [
        {
          "internalType": "uint256",
          "name": "",
          "type": "uint256"
        }
      ],
      "stateMutability": "view",
      "type": "function",
      "constant": true
    },
    {
      "inputs": [
        {
          "internalType": "uint256",
          "name": "num",
          "type": "uint256"
        }
      ],
      "name": "View_client",
      "outputs": [
        {
          "internalType": "uint256",
          "name": "",
          "type": "uint256"
        }
      ],
      "stateMutability": "view",
      "type": "function",
      "constant": true
    },
    {
      "inputs": [
        {
          "internalType": "uint256",
          "name": "num",
          "type": "uint256"
        }
      ],
      "name": "View_status",
      "outputs": [
        {
          "internalType": "string",
          "name": "",
          "type": "string"
        }
      ],
      "stateMutability": "view",
      "type": "function",
      "constant": true
    }
  ],
  "bytecode": "0x608060405273d377254722d3274f66eb66c392925f6052335ccb6000806101000a81548173ffffffffffffffffffffffffffffffffffffffff021916908373ffffffffffffffffffffffffffffffffffffffff1602179055506000600155600060025562051ece6003556000600555600060095562051ece600a556000600f5534801561008b57600080fd5b50612aba8061009b6000396000f3fe6080604052600436106101f95760003560e01c80638ab66a901161010d578063d219d26e116100a0578063ed0ed7241161006f578063ed0ed72414610825578063f944a5cf14610862578063fbccc8411461089f578063fc0803a1146108c8578063fd89bf02146108f1576101f9565b8063d219d26e14610757578063d2af2aa114610780578063d50d57ab146107bd578063d9c7cd99146107e8576101f9565b8063a577c51b116100dc578063a577c51b14610675578063b69ef8a8146106b2578063b90d3d0c146106dd578063ca7cf4b51461071a576101f9565b80638ab66a90146105b65780638f2313c3146105f35780639da6493a146106305780639f16ef7f1461064c576101f9565b8063481c6a75116101905780636969340a1161015f5780636969340a146104a95780636d705ebb146104e65780637260418f1461050f57806381d12c581461053857806385b0bbcf14610579576101f9565b8063481c6a75146103db5780634e1bf2a11461040657806359114abf1461042f5780635e22c14d1461046c576101f9565b80633591cba3116101cc5780633591cba3146102e55780634129c6e01461032257806342388c801461035f578063469e90671461039c576101f9565b806312065fe0146101fe57806314397bfc146102295780631f0bb4211461026b57806332647c8a146102a8575b600080fd5b34801561020a57600080fd5b5061021361090d565b6040516102209190612109565b60405180910390f35b34801561023557600080fd5b50610250600480360381019061024b9190612164565b610917565b6040516102629695949392919061222a565b60405180910390f35b34801561027757600080fd5b50610292600480360381019061028d91906122f7565b610a63565b60405161029f9190612109565b60405180910390f35b3480156102b457600080fd5b506102cf60048036038101906102ca9190612164565b610a7b565b6040516102dc9190612109565b60405180910390f35b3480156102f157600080fd5b5061030c60048036038101906103079190612164565b610a9b565b6040516103199190612324565b60405180910390f35b34801561032e57600080fd5b5061034960048036038101906103449190612164565b610b43565b6040516103569190612324565b60405180910390f35b34801561036b57600080fd5b5061038660048036038101906103819190612346565b610beb565b6040516103939190612324565b60405180910390f35b3480156103a857600080fd5b506103c360048036038101906103be91906122f7565b610cbc565b6040516103d293929190612386565b60405180910390f35b3480156103e757600080fd5b506103f0610d6e565b6040516103fd91906123d3565b60405180910390f35b34801561041257600080fd5b5061042d600480360381019061042891906123ee565b610d92565b005b34801561043b57600080fd5b5061045660048036038101906104519190612164565b610dfe565b6040516104639190612109565b60405180910390f35b34801561047857600080fd5b50610493600480360381019061048e9190612164565b610e1e565b6040516104a09190612324565b60405180910390f35b3480156104b557600080fd5b506104d060048036038101906104cb9190612164565b610ec6565b6040516104dd9190612109565b60405180910390f35b3480156104f257600080fd5b5061050d60048036038101906105089190612441565b610ee4565b005b34801561051b57600080fd5b50610536600480360381019061053191906125b6565b610fbd565b005b34801561054457600080fd5b5061055f600480360381019061055a9190612164565b611123565b604051610570959493929190612640565b60405180910390f35b34801561058557600080fd5b506105a0600480360381019061059b91906122f7565b611276565b6040516105ad9190612109565b60405180910390f35b3480156105c257600080fd5b506105dd60048036038101906105d891906122f7565b61128e565b6040516105ea9190612109565b60405180910390f35b3480156105ff57600080fd5b5061061a60048036038101906106159190612164565b6112a6565b6040516106279190612109565b60405180910390f35b61064a600480360381019061064591906126df565b6112c6565b005b34801561065857600080fd5b50610673600480360381019061066e91906123ee565b611484565b005b34801561068157600080fd5b5061069c60048036038101906106979190612441565b611614565b6040516106a99190612109565b60405180910390f35b3480156106be57600080fd5b506106c76116af565b6040516106d49190612109565b60405180910390f35b3480156106e957600080fd5b5061070460048036038101906106ff91906122f7565b6116b5565b6040516107119190612109565b60405180910390f35b34801561072657600080fd5b50610741600480360381019061073c9190612164565b6116cd565b60405161074e9190612109565b60405180910390f35b34801561076357600080fd5b5061077e600480360381019061077991906123ee565b6116ed565b005b34801561078c57600080fd5b506107a760048036038101906107a29190612441565b611a13565b6040516107b49190612109565b60405180910390f35b3480156107c957600080fd5b506107d2611aa8565b6040516107df91906123d3565b60405180910390f35b3480156107f457600080fd5b5061080f600480360381019061080a9190612441565b611ad1565b60405161081c9190612324565b60405180910390f35b34801561083157600080fd5b5061084c60048036038101906108479190612164565b611bf4565b6040516108599190612324565b60405180910390f35b34801561086e57600080fd5b5061088960048036038101906108849190612164565b611c9c565b6040516108969190612109565b60405180910390f35b3480156108ab57600080fd5b506108c660048036038101906108c19190612732565b611cbc565b005b3480156108d457600080fd5b506108ef60048036038101906108ea9190612732565b611d98565b005b61090b600480360381019061090691906127a1565b611ea7565b005b6000600154905090565b600e60205280600052604060002060009150905080600001805461093a906127fd565b80601f0160208091040260200160405190810160405280929190818152602001828054610966906127fd565b80156109b35780601f10610988576101008083540402835291602001916109b3565b820191906000526020600020905b81548152906001019060200180831161099657829003601f168201915b5050505050908060010154908060020154908060030154908060040154908060050180546109e0906127fd565b80601f0160208091040260200160405190810160405280929190818152602001828054610a0c906127fd565b8015610a595780601f10610a2e57610100808354040283529160200191610a59565b820191906000526020600020905b815481529060010190602001808311610a3c57829003601f168201915b5050505050905086565b600c6020528060005260406000206000915090505481565b6000600e6000838152602001908152602001600020600201549050919050565b6060600e60008381526020019081526020016000206000018054610abe906127fd565b80601f0160208091040260200160405190810160405280929190818152602001828054610aea906127fd565b8015610b375780601f10610b0c57610100808354040283529160200191610b37565b820191906000526020600020905b815481529060010190602001808311610b1a57829003601f168201915b50505050509050919050565b6060600e60008381526020019081526020016000206005018054610b66906127fd565b80601f0160208091040260200160405190810160405280929190818152602001828054610b92906127fd565b8015610bdf5780601f10610bb457610100808354040283529160200191610bdf565b820191906000526020600020905b815481529060010190602001808311610bc257829003601f168201915b50505050509050919050565b6060600d6000848152602001908152602001600020600001600183610c10919061285d565b81548110610c2157610c20612891565b5b906000526020600020018054610c36906127fd565b80601f0160208091040260200160405190810160405280929190818152602001828054610c62906127fd565b8015610caf5780601f10610c8457610100808354040283529160200191610caf565b820191906000526020600020905b815481529060010190602001808311610c9257829003601f168201915b5050505050905092915050565b600b602052806000526040600020600091509050806000018054610cdf906127fd565b80601f0160208091040260200160405190810160405280929190818152602001828054610d0b906127fd565b8015610d585780601f10610d2d57610100808354040283529160200191610d58565b820191906000526020600020905b815481529060010190602001808311610d3b57829003601f168201915b5050505050908060010154908060020154905083565b60008054906101000a900473ffffffffffffffffffffffffffffffffffffffff1681565b80600a5414610da057600080fd5b82600b60008473ffffffffffffffffffffffffffffffffffffffff1673ffffffffffffffffffffffffffffffffffffffff1681526020019081526020016000206001016000828254610df291906128c0565b92505081905550505050565b600060046000838152602001908152602001600020600101549050919050565b6060600460008381526020019081526020016000206000018054610e41906127fd565b80601f0160208091040260200160405190810160405280929190818152602001828054610e6d906127fd565b8015610eba5780601f10610e8f57610100808354040283529160200191610eba565b820191906000526020600020905b815481529060010190602001808311610e9d57829003601f168201915b50505050509050919050565b600d6020528060005260406000206000915090508060010154905081565b6000600860008473ffffffffffffffffffffffffffffffffffffffff1673ffffffffffffffffffffffffffffffffffffffff1681526020019081526020016000205414610f3057600080fd5b6001600860008473ffffffffffffffffffffffffffffffffffffffff1673ffffffffffffffffffffffffffffffffffffffff1681526020019081526020016000208190555080600760008473ffffffffffffffffffffffffffffffffffffffff1673ffffffffffffffffffffffffffffffffffffffff168152602001908152602001600020819055505050565b6000600c60008473ffffffffffffffffffffffffffffffffffffffff1673ffffffffffffffffffffffffffffffffffffffff168152602001908152602001600020541461100957600080fd5b6000600b60008473ffffffffffffffffffffffffffffffffffffffff1673ffffffffffffffffffffffffffffffffffffffff168152602001908152602001600020905083816000019080519060200190611064929190611fc0565b50600081600101819055508181600201819055506000600c60008573ffffffffffffffffffffffffffffffffffffffff1673ffffffffffffffffffffffffffffffffffffffff16815260200190815260200160002054036110d857600960008154809291906110d290612916565b91905055505b6001600c60008573ffffffffffffffffffffffffffffffffffffffff1673ffffffffffffffffffffffffffffffffffffffff1681526020019081526020016000208190555050505050565b6004602052806000526040600020600091509050806000018054611146906127fd565b80601f0160208091040260200160405190810160405280929190818152602001828054611172906127fd565b80156111bf5780601f10611194576101008083540402835291602001916111bf565b820191906000526020600020905b8154815290600101906020018083116111a257829003601f168201915b5050505050908060010154908060020180546111da906127fd565b80601f0160208091040260200160405190810160405280929190818152602001828054611206906127fd565b80156112535780601f1061122857610100808354040283529160200191611253565b820191906000526020600020905b81548152906001019060200180831161123657829003601f168201915b5050505050908060030160009054906101000a900460ff16908060050154905085565b60076020528060005260406000206000915090505481565b60086020528060005260406000206000915090505481565b6000600e6000838152602001908152602001600020600401549050919050565b600354811461130a576040517f08c379a0000000000000000000000000000000000000000000000000000000008152600401611301906129aa565b60405180910390fd5b6002546002600460008681526020019081526020016000206005015461133091906129ca565b1161133a57600080fd5b600015156004600085815260200190815260200160002060030160009054906101000a900460ff1615151461136e57600080fd5b6004600084815260200190815260200160002060010154341461139057600080fd5b8173ffffffffffffffffffffffffffffffffffffffff166108fc349081150290604051600060405180830381858888f193505050501580156113d6573d6000803e3d6000fd5b5034600160008282546113e9919061285d565b925050819055506040518060400160405280600981526020017f436f6d706c65746564000000000000000000000000000000000000000000000081525060046000858152602001908152602001600020600201908051906020019061144f929190611fc0565b5060016004600085815260200190815260200160002060030160006101000a81548160ff021916908315150217905550505050565b6000600660008473ffffffffffffffffffffffffffffffffffffffff1673ffffffffffffffffffffffffffffffffffffffff16815260200190815260200160002054036114d057600080fd5b80600760008473ffffffffffffffffffffffffffffffffffffffff1673ffffffffffffffffffffffffffffffffffffffff168152602001908152602001600020541461151b57600080fd5b60055483111561152a57600080fd5b60006004600085815260200190815260200160002060040160008473ffffffffffffffffffffffffffffffffffffffff1673ffffffffffffffffffffffffffffffffffffffff168152602001908152602001600020541461158a57600080fd5b60016004600085815260200190815260200160002060040160008473ffffffffffffffffffffffffffffffffffffffff1673ffffffffffffffffffffffffffffffffffffffff1681526020019081526020016000208190555060046000848152602001908152602001600020600501600081548092919061160a90612916565b9190505550505050565b600081600b60008573ffffffffffffffffffffffffffffffffffffffff1673ffffffffffffffffffffffffffffffffffffffff168152602001908152602001600020600201541461166457600080fd5b600b60008473ffffffffffffffffffffffffffffffffffffffff1673ffffffffffffffffffffffffffffffffffffffff16815260200190815260200160002060010154905092915050565b60015481565b60066020528060005260406000206000915090505481565b6000600e6000838152602001908152602001600020600301549050919050565b80600b60008473ffffffffffffffffffffffffffffffffffffffff1673ffffffffffffffffffffffffffffffffffffffff168152602001908152602001600020600201541461173b57600080fd5b600e600084815260200190815260200160002060020154600b60008473ffffffffffffffffffffffffffffffffffffffff1673ffffffffffffffffffffffffffffffffffffffff1681526020019081526020016000206001015410156117a057600080fd5b600e600084815260200190815260200160002060020154600b60008473ffffffffffffffffffffffffffffffffffffffff1673ffffffffffffffffffffffffffffffffffffffff16815260200190815260200160002060010154611804919061285d565b600b60008473ffffffffffffffffffffffffffffffffffffffff1673ffffffffffffffffffffffffffffffffffffffff16815260200190815260200160002060010181905550600e600084815260200190815260200160002060020154600e6000858152602001908152602001600020600301600082825461188691906128c0565b92505081905550600e600084815260200190815260200160002060010154600e60008581526020019081526020016000206003015410611921576040518060400160405280600981526020017f436f6d706c657465640000000000000000000000000000000000000000000000815250600e6000858152602001908152602001600020600501908051906020019061191f929190611fc0565b505b600d6000848152602001908152602001600020600101600081548092919061194890612916565b9190505550600d6000848152602001908152602001600020600001600b60008473ffffffffffffffffffffffffffffffffffffffff1673ffffffffffffffffffffffffffffffffffffffff168152602001908152602001600020600001908060018154018082558091505060019003906000526020600020016000909190919091509080546119d6906127fd565b6119e1929190612046565b50600e60008481526020019081526020016000206004016000815480929190611a0990612916565b9190505550505050565b600081600760008573ffffffffffffffffffffffffffffffffffffffff1673ffffffffffffffffffffffffffffffffffffffff1681526020019081526020016000205414611a6057600080fd5b600660008473ffffffffffffffffffffffffffffffffffffffff1673ffffffffffffffffffffffffffffffffffffffff16815260200190815260200160002054905092915050565b60008060009054906101000a900473ffffffffffffffffffffffffffffffffffffffff16905090565b606081600b60008573ffffffffffffffffffffffffffffffffffffffff1673ffffffffffffffffffffffffffffffffffffffff1681526020019081526020016000206002015414611b2157600080fd5b600b60008473ffffffffffffffffffffffffffffffffffffffff1673ffffffffffffffffffffffffffffffffffffffff1681526020019081526020016000206000018054611b6e906127fd565b80601f0160208091040260200160405190810160405280929190818152602001828054611b9a906127fd565b8015611be75780601f10611bbc57610100808354040283529160200191611be7565b820191906000526020600020905b815481529060010190602001808311611bca57829003601f168201915b5050505050905092915050565b6060600460008381526020019081526020016000206002018054611c17906127fd565b80601f0160208091040260200160405190810160405280929190818152602001828054611c43906127fd565b8015611c905780601f10611c6557610100808354040283529160200191611c90565b820191906000526020600020905b815481529060010190602001808311611c7357829003601f168201915b50505050509050919050565b6000600e6000838152602001908152602001600020600101549050919050565b6003548114611cca57600080fd5b60056000815480929190611cdd90612916565b91905055506000600460006005548152602001908152602001600020905083816000019080519060200190611d13929190611fc0565b508281600101819055506040518060400160405280600d81526020017f4e6f7420436f6d706c6574656400000000000000000000000000000000000000815250816002019080519060200190611d6a929190611fc0565b5060008160030160006101000a81548160ff0219169083151502179055506000816005018190555050505050565b600a548114611da657600080fd5b600f6000815480929190611db990612916565b91905055506000600e6000600f548152602001908152602001600020905083816000019080519060200190611def929190611fc0565b50828160010181905550600160095484611e099190612a53565b611e1391906128c0565b8160020181905550600081600301819055506040518060400160405280600c81526020017f4e6f7420436f6d70657465640000000000000000000000000000000000000000815250816005019080519060200190611e72929190611fc0565b50600081600401819055506000600d6000600f5481526020019081526020016000209050600081600101819055505050505050565b8073ffffffffffffffffffffffffffffffffffffffff166108fc349081150290604051600060405180830381858888f19350505050158015611eed573d6000803e3d6000fd5b506000600660003373ffffffffffffffffffffffffffffffffffffffff1673ffffffffffffffffffffffffffffffffffffffff1681526020019081526020016000205403611f4e5760026000815480929190611f4890612916565b91905055505b34600660003373ffffffffffffffffffffffffffffffffffffffff1673ffffffffffffffffffffffffffffffffffffffff1681526020019081526020016000206000828254611f9d91906128c0565b925050819055503460016000828254611fb691906128c0565b9250508190555050565b828054611fcc906127fd565b90600052602060002090601f016020900481019282611fee5760008555612035565b82601f1061200757805160ff1916838001178555612035565b82800160010185558215612035579182015b82811115612034578251825591602001919060010190612019565b5b50905061204291906120d3565b5090565b828054612052906127fd565b90600052602060002090601f01602090048101928261207457600085556120c2565b82601f1061208557805485556120c2565b828001600101855582156120c257600052602060002091601f016020900482015b828111156120c15782548255916001019190600101906120a6565b5b5090506120cf91906120d3565b5090565b5b808211156120ec5760008160009055506001016120d4565b5090565b6000819050919050565b612103816120f0565b82525050565b600060208201905061211e60008301846120fa565b92915050565b6000604051905090565b600080fd5b600080fd5b612141816120f0565b811461214c57600080fd5b50565b60008135905061215e81612138565b92915050565b60006020828403121561217a5761217961212e565b5b60006121888482850161214f565b91505092915050565b600081519050919050565b600082825260208201905092915050565b60005b838110156121cb5780820151818401526020810190506121b0565b838111156121da576000848401525b50505050565b6000601f19601f8301169050919050565b60006121fc82612191565b612206818561219c565b93506122168185602086016121ad565b61221f816121e0565b840191505092915050565b600060c082019050818103600083015261224481896121f1565b905061225360208301886120fa565b61226060408301876120fa565b61226d60608301866120fa565b61227a60808301856120fa565b81810360a083015261228c81846121f1565b9050979650505050505050565b600073ffffffffffffffffffffffffffffffffffffffff82169050919050565b60006122c482612299565b9050919050565b6122d4816122b9565b81146122df57600080fd5b50565b6000813590506122f1816122cb565b92915050565b60006020828403121561230d5761230c61212e565b5b600061231b848285016122e2565b91505092915050565b6000602082019050818103600083015261233e81846121f1565b905092915050565b6000806040838503121561235d5761235c61212e565b5b600061236b8582860161214f565b925050602061237c8582860161214f565b9150509250929050565b600060608201905081810360008301526123a081866121f1565b90506123af60208301856120fa565b6123bc60408301846120fa565b949350505050565b6123cd816122b9565b82525050565b60006020820190506123e860008301846123c4565b92915050565b6000806000606084860312156124075761240661212e565b5b60006124158682870161214f565b9350506020612426868287016122e2565b92505060406124378682870161214f565b9150509250925092565b600080604083850312156124585761245761212e565b5b6000612466858286016122e2565b92505060206124778582860161214f565b9150509250929050565b600080fd5b600080fd5b7f4e487b7100000000000000000000000000000000000000000000000000000000600052604160045260246000fd5b6124c3826121e0565b810181811067ffffffffffffffff821117156124e2576124e161248b565b5b80604052505050565b60006124f5612124565b905061250182826124ba565b919050565b600067ffffffffffffffff8211156125215761252061248b565b5b61252a826121e0565b9050602081019050919050565b82818337600083830152505050565b600061255961255484612506565b6124eb565b90508281526020810184848401111561257557612574612486565b5b612580848285612537565b509392505050565b600082601f83011261259d5761259c612481565b5b81356125ad848260208601612546565b91505092915050565b6000806000606084860312156125cf576125ce61212e565b5b600084013567ffffffffffffffff8111156125ed576125ec612133565b5b6125f986828701612588565b935050602061260a868287016122e2565b925050604061261b8682870161214f565b9150509250925092565b60008115159050919050565b61263a81612625565b82525050565b600060a082019050818103600083015261265a81886121f1565b905061266960208301876120fa565b818103604083015261267b81866121f1565b905061268a6060830185612631565b61269760808301846120fa565b9695505050505050565b60006126ac82612299565b9050919050565b6126bc816126a1565b81146126c757600080fd5b50565b6000813590506126d9816126b3565b92915050565b6000806000606084860312156126f8576126f761212e565b5b60006127068682870161214f565b9350506020612717868287016126ca565b92505060406127288682870161214f565b9150509250925092565b60008060006060848603121561274b5761274a61212e565b5b600084013567ffffffffffffffff81111561276957612768612133565b5b61277586828701612588565b93505060206127868682870161214f565b92505060406127978682870161214f565b9150509250925092565b6000602082840312156127b7576127b661212e565b5b60006127c5848285016126ca565b91505092915050565b7f4e487b7100000000000000000000000000000000000000000000000000000000600052602260045260246000fd5b6000600282049050600182168061281557607f821691505b602082108103612828576128276127ce565b5b50919050565b7f4e487b7100000000000000000000000000000000000000000000000000000000600052601160045260246000fd5b6000612868826120f0565b9150612873836120f0565b9250828210156128865761288561282e565b5b828203905092915050565b7f4e487b7100000000000000000000000000000000000000000000000000000000600052603260045260246000fd5b60006128cb826120f0565b91506128d6836120f0565b9250827fffffffffffffffffffffffffffffffffffffffffffffffffffffffffffffffff0382111561290b5761290a61282e565b5b828201905092915050565b6000612921826120f0565b91507fffffffffffffffffffffffffffffffffffffffffffffffffffffffffffffffff82036129535761295261282e565b5b600182019050919050565b7f496e636f72726563742050617373776f72640000000000000000000000000000600082015250565b600061299460128361219c565b915061299f8261295e565b602082019050919050565b600060208201905081810360008301526129c381612987565b9050919050565b60006129d5826120f0565b91506129e0836120f0565b9250817fffffffffffffffffffffffffffffffffffffffffffffffffffffffffffffffff0483118215151615612a1957612a1861282e565b5b828202905092915050565b7f4e487b7100000000000000000000000000000000000000000000000000000000600052601260045260246000fd5b6000612a5e826120f0565b9150612a69836120f0565b925082612a7957612a78612a24565b5b82820490509291505056fea264697066735822122070894468331e9b15c999211e6e54547d0afa2c2b5320b73b1fd25f83795fc5e064736f6c634300080d0033",
  "immutableReferences": {},
  "source": "/*This is the smart contract of a CrowdFunding DApp that I have made.\r\n  It contains manager as the person that deployed the contract and the following major functions:-\r\n  1)register()-> for the registration of a person that want to donate.\r\n  2)Find(address r,uint password)-> To check how much you have donated.\r\n  3)SendEth()->to send etherum to manager\r\n  4)createRequest()->to create a request by manager stating the amount of money required for a particular purpose\r\n  5)viewD,viewM,viewS()-> to find the description,money required and status of request created by manager\r\n  6)voting()-> Used by donators to vote for a particular request to ensure proper use of their money\r\n  7)Withdraw()->Used my manager to withdraw the money of a particular request if the votes given for this request is in majority\r\n  It also contains Request class to store data of a request and map 'requests' for storing different Request\r\n  It contains maps naming data,passcode and candidates for storing the money contributed by a given address,\r\n  passwords associated with different registerd accounts and if a account has registerd or not respectively.\r\n  */\r\n\r\n//SPDX-License-Identifier:MIT\r\npragma solidity >=0.5.0 <0.9.0;\r\n\r\ncontract CrowdFund{\r\n    address public manager=0xd377254722D3274f66eB66c392925F6052335CcB;\r\n    uint public balance=0;\r\n   uint  total=0;\r\n    uint  pass=335566;\r\n   \r\n   struct Request{\r\n    string description;\r\n    uint num;\r\n    string status;\r\n    bool completed;\r\n    mapping(address=>uint) voted;\r\n    uint votes;\r\n    \r\n \r\n}\r\n\r\nmapping(uint=>Request) public requests;\r\nuint number=0;\r\nfunction createRequest(string memory d,uint x,uint p) public {\r\n require(p==pass);\r\nnumber++;\r\nRequest storage newdata=requests[number];\r\n\r\nnewdata.description=d;newdata.num=x;newdata.status=\"Not Completed\";newdata.completed=false;\r\nnewdata.votes=0;\r\n\r\n}\r\n\r\nfunction viewD(uint id) public view returns(string memory){\r\n    return requests[id].description;\r\n}\r\nfunction viewM(uint id) public view returns(uint){\r\n    return requests[id].num;\r\n}\r\nfunction viewS(uint id) public view returns(string memory){\r\n    return requests[id].status;\r\n}\r\n\r\n\r\n    mapping(address=>uint) public data;\r\n    mapping (address=>uint) public passcode;\r\n    mapping(address=>uint) public candidates;\r\n\r\n    \r\n\r\n    \r\n\r\n    function voting(uint no,address a,uint p) public {\r\n        require(data[a]!=0);\r\n        require(passcode[a]==p);\r\n        require(no <=number);\r\n        require(requests[no].voted[a]==0);\r\n        requests[no].voted[a]=1;\r\n        requests[no].votes++;\r\n    }\r\n\r\n    function register(address a,uint b) public{\r\n        require(candidates[a]==0);\r\n        candidates[a]=1;\r\n        passcode[a]=b;\r\n    }\r\n\r\nfunction SendEth(address payable x) public payable{\r\n    // require(x==manager);\r\n   \r\n    x.transfer(msg.value);\r\n    if(data[msg.sender]==0)total++;\r\n    data[msg.sender]+=msg.value;\r\n    balance+=msg.value;\r\n   \r\n\r\n}\r\n\r\nfunction Withdraw(uint id,address payable x,uint password) public payable{\r\n    require(password==pass,\"Incorrect Password\");\r\n    require((requests[id].votes)*2>total);\r\n    require(requests[id].completed==false);\r\n    require(msg.value==requests[id].num);\r\n    x.transfer(msg.value);\r\n    balance-=msg.value;\r\n  requests[id].status=\"Completed\";\r\n    requests[id].completed=true;\r\n}\r\nfunction ManagerAddress() public view returns(address){\r\n    return manager;\r\n}\r\n\r\nfunction getBalance() public view returns(uint){\r\n    return balance;\r\n}\r\n\r\n\r\nfunction Find(address  r,uint p) public view  returns(uint){\r\nrequire(passcode[r]==p);\r\nreturn data[r]; \r\n    \r\n}\r\n\r\n uint people=0;\r\n    uint password=335566;\r\n\r\n    struct MyAccount{\r\n    string name;\r\n    uint points;\r\n    uint passcode;\r\n    \r\n    \r\n    \r\n    \r\n \r\n}\r\n\r\nmapping(address=>MyAccount) public records;\r\nmapping(address=>uint ) public records3;\r\n\r\nfunction Signup(string memory _name,address ad,uint _p) public{\r\n    require(records3[ad]==0);\r\n    MyAccount storage newdata=records[ad];\r\n    newdata.name=_name;\r\n    newdata.points=0;\r\n    newdata.passcode=_p;\r\n    if(records3[ad]==0)\r\n    people++;\r\n\r\n    records3[ad]=1;\r\n}\r\n\r\nfunction Profile_name(address ad,uint passs) public view returns(string memory){\r\n    require(records[ad].passcode==passs);\r\n    return records[ad].name;\r\n}\r\n\r\nfunction Profile_points(address ad,uint passs) public view returns(uint){\r\n    require(records[ad].passcode==passs);\r\n    return records[ad].points;\r\n}\r\n\r\nfunction Sendpoints(uint x,address ad,uint passs) public {\r\nrequire(password==passs);\r\nrecords[ad].points+=x;\r\n}\r\n\r\nstruct Contri{\r\n    string des;\r\n    uint total;\r\n    uint person;\r\n    uint collected;\r\n    uint client;\r\n    string status;\r\n}\r\nstruct Payees{\r\n    string[]   names;\r\n    uint totall;\r\n\r\n}\r\nmapping(uint=>Payees) public records2;\r\n\r\nmapping(uint=>Contri) public records1;\r\nuint contri_num=0;\r\nfunction Contri_req(string memory _des,uint _total,uint passs) public {\r\n    require(passs==password);\r\n    contri_num++;\r\n    Contri storage newdata=records1[contri_num];\r\n    newdata.des=_des;\r\n    newdata.total=_total;\r\n    newdata.person=(_total/people)+1;\r\n    newdata.collected=0;\r\n    newdata.status=\"Not Competed\";\r\n    newdata.client=0;\r\n    Payees storage payee=records2[contri_num];\r\n    payee.totall=0;\r\n}\r\n\r\nfunction Pay(uint req_no,address ad,uint x) public {\r\n   require(records[ad].passcode==x);\r\n    require(records[ad].points>=records1[req_no].person);\r\n    records[ad].points=(records[ad].points)-(records1[req_no].person);\r\n    records1[req_no].collected+=(records1[req_no].person);\r\n    if(records1[req_no].collected>=records1[req_no].total)records1[req_no].status=\"Completed\";\r\n    records2[req_no].totall++;\r\n    (records2[req_no].names).push(records[ad].name);\r\n    records1[req_no].client++;\r\n\r\n\r\n}\r\nfunction ViewPayee(uint num,uint val) public view returns(string memory){\r\n    return (records2[num].names)[val-1];\r\n}\r\n\r\nfunction View_des(uint num) public view returns(string memory){\r\nreturn records1[num].des;\r\n}\r\nfunction View_total(uint num) public view returns(uint){\r\nreturn records1[num].total;\r\n}\r\nfunction View_person(uint num) public view returns(uint){\r\nreturn records1[num].person;\r\n}\r\nfunction View_remaining(uint num) public view returns(uint){\r\nreturn records1[num].collected;\r\n}\r\nfunction View_client(uint num) public view returns(uint){\r\nreturn records1[num].client;\r\n}\r\nfunction View_status(uint num) public view returns(string memory){\r\nreturn records1[num].status;\r\n}\r\n    \r\n}",
  "sourcePath": "C:\\Users\\aryan\\OneDrive\\Desktop\\NewApp\\Crowd-funding-dapp\\contracts\\CrowdFund.sol",
  "compiler": {
    "name": "solc",
    "version": "0.8.13+commit.abaa5c0e.Emscripten.clang"
  },
  "schemaVersion": "3.4.16",
  "updatedAt": "2023-12-08T18:13:05.260Z",
  "networkType": "ethereum",
  "devdoc": {
    "kind": "dev",
    "methods": {},
    "version": 1
  },
  "userdoc": {
    "kind": "user",
    "methods": {},
    "version": 1
  }
}