{
  "contractName": "CrowdFund",
  "abi": [
    {
      "inputs": [],
      "name": "balance",
      "outputs": [
        {
          "internalType": "uint256",
          "name": "",
          "type": "uint256"
        }
      ],
      "stateMutability": "view",
      "type": "function",
      "constant": true
    },
    {
      "inputs": [
        {
          "internalType": "address",
          "name": "",
          "type": "address"
        }
      ],
      "name": "candidates",
      "outputs": [
        {
          "internalType": "uint256",
          "name": "",
          "type": "uint256"
        }
      ],
      "stateMutability": "view",
      "type": "function",
      "constant": true
    },
    {
      "inputs": [
        {
          "internalType": "address",
          "name": "",
          "type": "address"
        }
      ],
      "name": "data",
      "outputs": [
        {
          "internalType": "uint256",
          "name": "",
          "type": "uint256"
        }
      ],
      "stateMutability": "view",
      "type": "function",
      "constant": true
    },
    {
      "inputs": [],
      "name": "manager",
      "outputs": [
        {
          "internalType": "address",
          "name": "",
          "type": "address"
        }
      ],
      "stateMutability": "view",
      "type": "function",
      "constant": true
    },
    {
      "inputs": [
        {
          "internalType": "address",
          "name": "",
          "type": "address"
        }
      ],
      "name": "passcode",
      "outputs": [
        {
          "internalType": "uint256",
          "name": "",
          "type": "uint256"
        }
      ],
      "stateMutability": "view",
      "type": "function",
      "constant": true
    },
    {
      "inputs": [
        {
          "internalType": "uint256",
          "name": "",
          "type": "uint256"
        }
      ],
      "name": "requests",
      "outputs": [
        {
          "internalType": "string",
          "name": "description",
          "type": "string"
        },
        {
          "internalType": "uint256",
          "name": "num",
          "type": "uint256"
        },
        {
          "internalType": "string",
          "name": "status",
          "type": "string"
        },
        {
          "internalType": "bool",
          "name": "completed",
          "type": "bool"
        },
        {
          "internalType": "uint256",
          "name": "votes",
          "type": "uint256"
        }
      ],
      "stateMutability": "view",
      "type": "function",
      "constant": true
    },
    {
      "inputs": [
        {
          "internalType": "string",
          "name": "d",
          "type": "string"
        },
        {
          "internalType": "uint256",
          "name": "x",
          "type": "uint256"
        },
        {
          "internalType": "uint256",
          "name": "p",
          "type": "uint256"
        }
      ],
      "name": "createRequest",
      "outputs": [],
      "stateMutability": "nonpayable",
      "type": "function"
    },
    {
      "inputs": [
        {
          "internalType": "uint256",
          "name": "id",
          "type": "uint256"
        }
      ],
      "name": "viewD",
      "outputs": [
        {
          "internalType": "string",
          "name": "",
          "type": "string"
        }
      ],
      "stateMutability": "view",
      "type": "function",
      "constant": true
    },
    {
      "inputs": [
        {
          "internalType": "uint256",
          "name": "id",
          "type": "uint256"
        }
      ],
      "name": "viewM",
      "outputs": [
        {
          "internalType": "uint256",
          "name": "",
          "type": "uint256"
        }
      ],
      "stateMutability": "view",
      "type": "function",
      "constant": true
    },
    {
      "inputs": [
        {
          "internalType": "uint256",
          "name": "id",
          "type": "uint256"
        }
      ],
      "name": "viewS",
      "outputs": [
        {
          "internalType": "string",
          "name": "",
          "type": "string"
        }
      ],
      "stateMutability": "view",
      "type": "function",
      "constant": true
    },
    {
      "inputs": [
        {
          "internalType": "uint256",
          "name": "no",
          "type": "uint256"
        },
        {
          "internalType": "address",
          "name": "a",
          "type": "address"
        },
        {
          "internalType": "uint256",
          "name": "p",
          "type": "uint256"
        }
      ],
      "name": "voting",
      "outputs": [],
      "stateMutability": "nonpayable",
      "type": "function"
    },
    {
      "inputs": [
        {
          "internalType": "address",
          "name": "a",
          "type": "address"
        },
        {
          "internalType": "uint256",
          "name": "b",
          "type": "uint256"
        }
      ],
      "name": "register",
      "outputs": [],
      "stateMutability": "nonpayable",
      "type": "function"
    },
    {
      "inputs": [
        {
          "internalType": "address payable",
          "name": "x",
          "type": "address"
        }
      ],
      "name": "SendEth",
      "outputs": [],
      "stateMutability": "payable",
      "type": "function",
      "payable": true
    },
    {
      "inputs": [
        {
          "internalType": "uint256",
          "name": "id",
          "type": "uint256"
        },
        {
          "internalType": "address payable",
          "name": "x",
          "type": "address"
        },
        {
          "internalType": "uint256",
          "name": "password",
          "type": "uint256"
        }
      ],
      "name": "Withdraw",
      "outputs": [],
      "stateMutability": "payable",
      "type": "function",
      "payable": true
    },
    {
      "inputs": [],
      "name": "ManagerAddress",
      "outputs": [
        {
          "internalType": "address",
          "name": "",
          "type": "address"
        }
      ],
      "stateMutability": "view",
      "type": "function",
      "constant": true
    },
    {
      "inputs": [],
      "name": "getBalance",
      "outputs": [
        {
          "internalType": "uint256",
          "name": "",
          "type": "uint256"
        }
      ],
      "stateMutability": "view",
      "type": "function",
      "constant": true
    },
    {
      "inputs": [
        {
          "internalType": "address",
          "name": "r",
          "type": "address"
        },
        {
          "internalType": "uint256",
          "name": "p",
          "type": "uint256"
        }
      ],
      "name": "Find",
      "outputs": [
        {
          "internalType": "uint256",
          "name": "",
          "type": "uint256"
        }
      ],
      "stateMutability": "view",
      "type": "function",
      "constant": true
    }
  ],
  "bytecode": "0x608060405273d377254722d3274f66eb66c392925f6052335ccb6000806101000a81548173ffffffffffffffffffffffffffffffffffffffff021916908373ffffffffffffffffffffffffffffffffffffffff1602179055506000600155600060025562051ece600355600060055534801561007a57600080fd5b506117418061008a6000396000f3fe6080604052600436106100fe5760003560e01c80639da6493a11610095578063d2af2aa111610064578063d2af2aa114610364578063d50d57ab146103a1578063ed0ed724146103cc578063fbccc84114610409578063fd89bf0214610432576100fe565b80639da6493a146102b75780639f16ef7f146102d3578063b69ef8a8146102fc578063b90d3d0c14610327576100fe565b80636d705ebb116100d15780636d705ebb146101d357806381d12c58146101fc57806385b0bbcf1461023d5780638ab66a901461027a576100fe565b806312065fe014610103578063481c6a751461012e57806359114abf146101595780635e22c14d14610196575b600080fd5b34801561010f57600080fd5b5061011861044e565b6040516101259190610f7b565b60405180910390f35b34801561013a57600080fd5b50610143610458565b6040516101509190610fd7565b60405180910390f35b34801561016557600080fd5b50610180600480360381019061017b9190611032565b61047c565b60405161018d9190610f7b565b60405180910390f35b3480156101a257600080fd5b506101bd60048036038101906101b89190611032565b61049c565b6040516101ca91906110f8565b60405180910390f35b3480156101df57600080fd5b506101fa60048036038101906101f59190611146565b610544565b005b34801561020857600080fd5b50610223600480360381019061021e9190611032565b61061d565b6040516102349594939291906111a1565b60405180910390f35b34801561024957600080fd5b50610264600480360381019061025f9190611202565b610770565b6040516102719190610f7b565b60405180910390f35b34801561028657600080fd5b506102a1600480360381019061029c9190611202565b610788565b6040516102ae9190610f7b565b60405180910390f35b6102d160048036038101906102cc919061126d565b6107a0565b005b3480156102df57600080fd5b506102fa60048036038101906102f591906112c0565b61095e565b005b34801561030857600080fd5b50610311610aee565b60405161031e9190610f7b565b60405180910390f35b34801561033357600080fd5b5061034e60048036038101906103499190611202565b610af4565b60405161035b9190610f7b565b60405180910390f35b34801561037057600080fd5b5061038b60048036038101906103869190611146565b610b0c565b6040516103989190610f7b565b60405180910390f35b3480156103ad57600080fd5b506103b6610ba1565b6040516103c39190610fd7565b60405180910390f35b3480156103d857600080fd5b506103f360048036038101906103ee9190611032565b610bca565b60405161040091906110f8565b60405180910390f35b34801561041557600080fd5b50610430600480360381019061042b9190611448565b610c72565b005b61044c600480360381019061044791906114b7565b610d4e565b005b6000600154905090565b60008054906101000a900473ffffffffffffffffffffffffffffffffffffffff1681565b600060046000838152602001908152602001600020600101549050919050565b60606004600083815260200190815260200160002060000180546104bf90611513565b80601f01602080910402602001604051908101604052809291908181526020018280546104eb90611513565b80156105385780601f1061050d57610100808354040283529160200191610538565b820191906000526020600020905b81548152906001019060200180831161051b57829003601f168201915b50505050509050919050565b6000600860008473ffffffffffffffffffffffffffffffffffffffff1673ffffffffffffffffffffffffffffffffffffffff168152602001908152602001600020541461059057600080fd5b6001600860008473ffffffffffffffffffffffffffffffffffffffff1673ffffffffffffffffffffffffffffffffffffffff1681526020019081526020016000208190555080600760008473ffffffffffffffffffffffffffffffffffffffff1673ffffffffffffffffffffffffffffffffffffffff168152602001908152602001600020819055505050565b600460205280600052604060002060009150905080600001805461064090611513565b80601f016020809104026020016040519081016040528092919081815260200182805461066c90611513565b80156106b95780601f1061068e576101008083540402835291602001916106b9565b820191906000526020600020905b81548152906001019060200180831161069c57829003601f168201915b5050505050908060010154908060020180546106d490611513565b80601f016020809104026020016040519081016040528092919081815260200182805461070090611513565b801561074d5780601f106107225761010080835404028352916020019161074d565b820191906000526020600020905b81548152906001019060200180831161073057829003601f168201915b5050505050908060030160009054906101000a900460ff16908060050154905085565b60076020528060005260406000206000915090505481565b60086020528060005260406000206000915090505481565b60035481146107e4576040517f08c379a00000000000000000000000000000000000000000000000000000000081526004016107db90611590565b60405180910390fd5b6002546002600460008681526020019081526020016000206005015461080a91906115df565b1161081457600080fd5b600015156004600085815260200190815260200160002060030160009054906101000a900460ff1615151461084857600080fd5b6004600084815260200190815260200160002060010154341461086a57600080fd5b8173ffffffffffffffffffffffffffffffffffffffff166108fc349081150290604051600060405180830381858888f193505050501580156108b0573d6000803e3d6000fd5b5034600160008282546108c39190611639565b925050819055506040518060400160405280600981526020017f436f6d706c657465640000000000000000000000000000000000000000000000815250600460008581526020019081526020016000206002019080519060200190610929929190610ebf565b5060016004600085815260200190815260200160002060030160006101000a81548160ff021916908315150217905550505050565b6000600660008473ffffffffffffffffffffffffffffffffffffffff1673ffffffffffffffffffffffffffffffffffffffff16815260200190815260200160002054036109aa57600080fd5b80600760008473ffffffffffffffffffffffffffffffffffffffff1673ffffffffffffffffffffffffffffffffffffffff16815260200190815260200160002054146109f557600080fd5b600554831115610a0457600080fd5b60006004600085815260200190815260200160002060040160008473ffffffffffffffffffffffffffffffffffffffff1673ffffffffffffffffffffffffffffffffffffffff1681526020019081526020016000205414610a6457600080fd5b60016004600085815260200190815260200160002060040160008473ffffffffffffffffffffffffffffffffffffffff1673ffffffffffffffffffffffffffffffffffffffff16815260200190815260200160002081905550600460008481526020019081526020016000206005016000815480929190610ae49061166d565b9190505550505050565b60015481565b60066020528060005260406000206000915090505481565b600081600760008573ffffffffffffffffffffffffffffffffffffffff1673ffffffffffffffffffffffffffffffffffffffff1681526020019081526020016000205414610b5957600080fd5b600660008473ffffffffffffffffffffffffffffffffffffffff1673ffffffffffffffffffffffffffffffffffffffff16815260200190815260200160002054905092915050565b60008060009054906101000a900473ffffffffffffffffffffffffffffffffffffffff16905090565b6060600460008381526020019081526020016000206002018054610bed90611513565b80601f0160208091040260200160405190810160405280929190818152602001828054610c1990611513565b8015610c665780601f10610c3b57610100808354040283529160200191610c66565b820191906000526020600020905b815481529060010190602001808311610c4957829003601f168201915b50505050509050919050565b6003548114610c8057600080fd5b60056000815480929190610c939061166d565b91905055506000600460006005548152602001908152602001600020905083816000019080519060200190610cc9929190610ebf565b508281600101819055506040518060400160405280600d81526020017f4e6f7420436f6d706c6574656400000000000000000000000000000000000000815250816002019080519060200190610d20929190610ebf565b5060008160030160006101000a81548160ff0219169083151502179055506000816005018190555050505050565b60008054906101000a900473ffffffffffffffffffffffffffffffffffffffff1673ffffffffffffffffffffffffffffffffffffffff168173ffffffffffffffffffffffffffffffffffffffff1614610da657600080fd5b8073ffffffffffffffffffffffffffffffffffffffff166108fc349081150290604051600060405180830381858888f19350505050158015610dec573d6000803e3d6000fd5b506000600660003373ffffffffffffffffffffffffffffffffffffffff1673ffffffffffffffffffffffffffffffffffffffff1681526020019081526020016000205403610e4d5760026000815480929190610e479061166d565b91905055505b34600660003373ffffffffffffffffffffffffffffffffffffffff1673ffffffffffffffffffffffffffffffffffffffff1681526020019081526020016000206000828254610e9c91906116b5565b925050819055503460016000828254610eb591906116b5565b9250508190555050565b828054610ecb90611513565b90600052602060002090601f016020900481019282610eed5760008555610f34565b82601f10610f0657805160ff1916838001178555610f34565b82800160010185558215610f34579182015b82811115610f33578251825591602001919060010190610f18565b5b509050610f419190610f45565b5090565b5b80821115610f5e576000816000905550600101610f46565b5090565b6000819050919050565b610f7581610f62565b82525050565b6000602082019050610f906000830184610f6c565b92915050565b600073ffffffffffffffffffffffffffffffffffffffff82169050919050565b6000610fc182610f96565b9050919050565b610fd181610fb6565b82525050565b6000602082019050610fec6000830184610fc8565b92915050565b6000604051905090565b600080fd5b600080fd5b61100f81610f62565b811461101a57600080fd5b50565b60008135905061102c81611006565b92915050565b60006020828403121561104857611047610ffc565b5b60006110568482850161101d565b91505092915050565b600081519050919050565b600082825260208201905092915050565b60005b8381101561109957808201518184015260208101905061107e565b838111156110a8576000848401525b50505050565b6000601f19601f8301169050919050565b60006110ca8261105f565b6110d4818561106a565b93506110e481856020860161107b565b6110ed816110ae565b840191505092915050565b6000602082019050818103600083015261111281846110bf565b905092915050565b61112381610fb6565b811461112e57600080fd5b50565b6000813590506111408161111a565b92915050565b6000806040838503121561115d5761115c610ffc565b5b600061116b85828601611131565b925050602061117c8582860161101d565b9150509250929050565b60008115159050919050565b61119b81611186565b82525050565b600060a08201905081810360008301526111bb81886110bf565b90506111ca6020830187610f6c565b81810360408301526111dc81866110bf565b90506111eb6060830185611192565b6111f86080830184610f6c565b9695505050505050565b60006020828403121561121857611217610ffc565b5b600061122684828501611131565b91505092915050565b600061123a82610f96565b9050919050565b61124a8161122f565b811461125557600080fd5b50565b60008135905061126781611241565b92915050565b60008060006060848603121561128657611285610ffc565b5b60006112948682870161101d565b93505060206112a586828701611258565b92505060406112b68682870161101d565b9150509250925092565b6000806000606084860312156112d9576112d8610ffc565b5b60006112e78682870161101d565b93505060206112f886828701611131565b92505060406113098682870161101d565b9150509250925092565b600080fd5b600080fd5b7f4e487b7100000000000000000000000000000000000000000000000000000000600052604160045260246000fd5b611355826110ae565b810181811067ffffffffffffffff821117156113745761137361131d565b5b80604052505050565b6000611387610ff2565b9050611393828261134c565b919050565b600067ffffffffffffffff8211156113b3576113b261131d565b5b6113bc826110ae565b9050602081019050919050565b82818337600083830152505050565b60006113eb6113e684611398565b61137d565b90508281526020810184848401111561140757611406611318565b5b6114128482856113c9565b509392505050565b600082601f83011261142f5761142e611313565b5b813561143f8482602086016113d8565b91505092915050565b60008060006060848603121561146157611460610ffc565b5b600084013567ffffffffffffffff81111561147f5761147e611001565b5b61148b8682870161141a565b935050602061149c8682870161101d565b92505060406114ad8682870161101d565b9150509250925092565b6000602082840312156114cd576114cc610ffc565b5b60006114db84828501611258565b91505092915050565b7f4e487b7100000000000000000000000000000000000000000000000000000000600052602260045260246000fd5b6000600282049050600182168061152b57607f821691505b60208210810361153e5761153d6114e4565b5b50919050565b7f496e636f72726563742050617373776f72640000000000000000000000000000600082015250565b600061157a60128361106a565b915061158582611544565b602082019050919050565b600060208201905081810360008301526115a98161156d565b9050919050565b7f4e487b7100000000000000000000000000000000000000000000000000000000600052601160045260246000fd5b60006115ea82610f62565b91506115f583610f62565b9250817fffffffffffffffffffffffffffffffffffffffffffffffffffffffffffffffff048311821515161561162e5761162d6115b0565b5b828202905092915050565b600061164482610f62565b915061164f83610f62565b925082821015611662576116616115b0565b5b828203905092915050565b600061167882610f62565b91507fffffffffffffffffffffffffffffffffffffffffffffffffffffffffffffffff82036116aa576116a96115b0565b5b600182019050919050565b60006116c082610f62565b91506116cb83610f62565b9250827fffffffffffffffffffffffffffffffffffffffffffffffffffffffffffffffff03821115611700576116ff6115b0565b5b82820190509291505056fea2646970667358221220e741269022da5befc521a1fd2f80e8dceb750925ef36f02939aa58e0a0b275de64736f6c634300080d0033",
  "immutableReferences": {},
  "source": "/*This is the smart contract of a CrowdFunding DApp that I have made.\r\n  It contains manager as the person that deployed the contract and the following major functions:-\r\n  1)register()-> for the registration of a person that want to donate.\r\n  2)Find(address r,uint password)-> To check how much you have donated.\r\n  3)SendEth()->to send etherum to manager\r\n  4)createRequest()->to create a request by manager stating the amount of money required for a particular purpose\r\n  5)viewD,viewM,viewS()-> to find the description,money required and status of request created by manager\r\n  6)voting()-> Used by donators to vote for a particular request to ensure proper use of their money\r\n  7)Withdraw()->Used my manager to withdraw the money of a particular request if the votes given for this request is in majority\r\n  It also contains Request class to store data of a request and map 'requests' for storing different Request\r\n  It contains maps naming data,passcode and candidates for storing the money contributed by a given address,\r\n  passwords associated with different registerd accounts and if a account has registerd or not respectively.\r\n  */\r\n\r\n//SPDX-License-Identifier:MIT\r\npragma solidity >=0.5.0 <0.9.0;\r\n\r\ncontract CrowdFund{\r\n    address public manager=0xd377254722D3274f66eB66c392925F6052335CcB;\r\n    uint public balance=0;\r\n   uint  total=0;\r\n    uint  pass=335566;\r\n   \r\n   struct Request{\r\n    string description;\r\n    uint num;\r\n    string status;\r\n    bool completed;\r\n    mapping(address=>uint) voted;\r\n    uint votes;\r\n    \r\n \r\n}\r\n\r\nmapping(uint=>Request) public requests;\r\nuint number=0;\r\nfunction createRequest(string memory d,uint x,uint p) public {\r\n require(p==pass);\r\nnumber++;\r\nRequest storage newdata=requests[number];\r\n\r\nnewdata.description=d;newdata.num=x;newdata.status=\"Not Completed\";newdata.completed=false;\r\nnewdata.votes=0;\r\n\r\n}\r\n\r\nfunction viewD(uint id) public view returns(string memory){\r\n    return requests[id].description;\r\n}\r\nfunction viewM(uint id) public view returns(uint){\r\n    return requests[id].num;\r\n}\r\nfunction viewS(uint id) public view returns(string memory){\r\n    return requests[id].status;\r\n}\r\n\r\n\r\n    mapping(address=>uint) public data;\r\n    mapping (address=>uint) public passcode;\r\n    mapping(address=>uint) public candidates;\r\n\r\n    \r\n\r\n    \r\n\r\n    function voting(uint no,address a,uint p) public {\r\n        require(data[a]!=0);\r\n        require(passcode[a]==p);\r\n        require(no <=number);\r\n        require(requests[no].voted[a]==0);\r\n        requests[no].voted[a]=1;\r\n        requests[no].votes++;\r\n    }\r\n\r\n    function register(address a,uint b) public{\r\n        require(candidates[a]==0);\r\n        candidates[a]=1;\r\n        passcode[a]=b;\r\n    }\r\n\r\nfunction SendEth(address payable x) public payable{\r\n    require(x==manager);\r\n   \r\n    x.transfer(msg.value);\r\n    if(data[msg.sender]==0)total++;\r\n    data[msg.sender]+=msg.value;\r\n    balance+=msg.value;\r\n   \r\n\r\n}\r\n\r\nfunction Withdraw(uint id,address payable x,uint password) public payable{\r\n    require(password==pass,\"Incorrect Password\");\r\n    require((requests[id].votes)*2>total);\r\n    require(requests[id].completed==false);\r\n    require(msg.value==requests[id].num);\r\n    x.transfer(msg.value);\r\n    balance-=msg.value;\r\n  requests[id].status=\"Completed\";\r\n    requests[id].completed=true;\r\n}\r\nfunction ManagerAddress() public view returns(address){\r\n    return manager;\r\n}\r\n\r\nfunction getBalance() public view returns(uint){\r\n    return balance;\r\n}\r\n\r\n\r\nfunction Find(address  r,uint p) public view  returns(uint){\r\nrequire(passcode[r]==p);\r\nreturn data[r]; \r\n    \r\n}\r\n    \r\n}",
  "sourcePath": "C:\\Users\\aryan\\OneDrive\\Desktop\\Crowd\\contracts\\CrowdFund.sol",
  "compiler": {
    "name": "solc",
    "version": "0.8.13+commit.abaa5c0e.Emscripten.clang"
  },
  "schemaVersion": "3.4.16",
  "updatedAt": "2023-11-25T19:17:04.544Z",
  "networkType": "ethereum",
  "devdoc": {
    "kind": "dev",
    "methods": {},
    "version": 1
  },
  "userdoc": {
    "kind": "user",
    "methods": {},
    "version": 1
  }
}